S017000052413045315F50726F6A65637431352E7372656338
S31500000000B0680020B9020000D1010000B50200006E
S31500000010B5020000B5020000B5020000B5020000FE
S31500000020000000000000000000000000B502000013
S31500000030B502000000000000B5020000B502000095
S3150000004000000000000000000000000000000000AA
S31500000050000000000000000000000000000000009A
S31500000060000000000000000000000000000000008A
S31500000070000000000000000000000000000000007A
S31500000080000000000000000000000000000000006A
S31500000090000000000000000000000000000000005A
S315000000A000000000000000000D100000000000002D
S315000000B0000000000000000000000000000000003A
S315000000C0000000000000000000000000000000002A
S315000000D0000000000000000000000000000000001A
S315000000E0990C0000E10C000040F61A0210B5154B01
S315000000F015499C5C154AD068E040086040F623002C
S31500000100185C800708D540F622001B5C13B1936883
S315000001100B6010BD1369FBE740F62100185C8007F1
S31500000120F7D440F62000185C800705D540F6190084
S31500000130185C5368C340EBE740F61800185C136878
S31500000140F8E7C04600E001405C430020DC410020A7
S3150000015001380028FCD1704770B54143114B124D50
S315000001601B680C00B5FBF3F5080040F2E8320023EB
S31500000170002101F011F931B9B0FBF5F0800808B1A2
S31500000180FFF7E6FF70BDAD00B4FBF5F040F2E832D4
S315000001900023002101F000F90029F0D0012040429F
S315000001A0EEE7C0465C43002000CA9A3B10B5034BFD
S315000001B08200D35803B1984710BDC046884200203C
S315000001C0024B8000195000207047C046884200202C
S315000001D0F8B540F2401300240127084E084A758CF2
S315000001E0D35A1D402B00E3403B4202D0E0B2FFF75A
S315000001F0DDFF0134092CF5D17586F8BDFE6000409F
S31500000200006000401F22430910401E3A8240024906
S3150000021060339B005A50704700E100E0F7B5FF27B6
S31500000220019283080A4A03269B009B183A0040F273
S3150000023000350640F6008901B2403940B1405C59AC
S31500000240800094430C435C51019A024B1A50F7BD4F
S3150000025000E100E0B04200201F22430910401E3A90
S31500000260824002499B005A507047C04600E100E0B8
S3150000027010B50400FFF7C6FF2000FFF7EDFF10BD25
S315000002801F22430910401E3A8240044920339B0036
S315000002905A50BFF34F8FBFF36F8F704700E100E0F6
S315000002A010B50400FFF7BAFF2000FFF7E1FF10BD0D
S315000002B07047C04600BE704710B501F01DF800F04B
S315000002C05CFCFEE7FFFFFFFFFFFFFFFFFFFFFFFFF7
S315000002D0FFFFFFFFFFFFFFFFFFFFFFFFFFFFFFFF28
S315000002E0FFFFFFFFFFFFFFFFFFFFFFFFFFFFFFFF18
S315000002F0FFFFFFFFFFFFFFFFFFFFFFFFFFFFFFFF08
S31500000300FFFFFFFFFFFFFFFFFFFFFFFFFFFFFFFFF7
S31500000310FFFFFFFFFFFFFFFFFFFFFFFFFFFFFFFFE7
S31500000320FFFFFFFFFFFFFFFFFFFFFFFFFFFFFFFFD7
S31500000330FFFFFFFFFFFFFFFFFFFFFFFFFFFFFFFFC7
S31500000340FFFFFFFFFFFFFFFFFFFFFFFFFFFFFFFFB7
S31500000350FFFFFFFFFFFFFFFFFFFFFFFFFFFFFFFFA7
S31500000360FFFFFFFFFFFFFFFFFFFFFFFFFFFFFFFF97
S31500000370FFFFFFFFFFFFFFFFFFFFFFFFFFFFFFFF87
S31500000380FFFFFFFFFFFFFFFFFFFFFFFFFFFFFFFF77
S31500000390FFFFFFFFFFFFFFFFFFFFFFFFFFFFFFFF67
S315000003A0FFFFFFFFFFFFFFFFFFFFFFFFFFFFFFFF57
S315000003B0FFFFFFFFFFFFFFFFFFFFFFFFFFFFFFFF47
S315000003C0FFFFFFFFFFFFFFFFFFFFFFFFFFFFFFFF37
S315000003D0FFFFFFFFFFFFFFFFFFFFFFFFFFFFFFFF27
S315000003E0FFFFFFFFFFFFFFFFFFFFFFFFFFFFFFFF17
S315000003F0FFFFFFFFFFFFFFFFFFFFFFFFFFFFFFFF07
S31500000400FFFFFFFFF7AFC1FF44F2DC1044F2DC133D
S31500000410C2F20000C2F2000310B5834205D040F2DA
S315000004200003C0F2000303B1984710BD44F2DC108C
S3150000043044F2DC13C2F20000C2F200031B1A9A1047
S31500000440D90F8918491010B529B140F20003C0F23E
S31500000450000303B1984710BD10B544F2F014C2F280
S315000004600004237873B9FFF7CFFF40F20003C0F210
S3150000047000032BB146F2DC70C0F2000000E000BFC2
S315000004800123237010BDC04640F20003C0F20003F2
S3150000049010B54BB144F2F41146F2DC70C2F2000121
S315000004A0C0F2000000E000BFFFF7C0FF10BDC0466D
S315000004B010B540F2E831FFF74FFE10BDB0B56D46FE
S315000004C008005C1C11001A000833DB08DB00EB1A7D
S315000004D000AF9D461870581C02F048F9012322000F
S315000004E06946124800F007FD114B186060B1D5212E
S315000004F0104B114A114800F0DFFE01210800FFF7FA
S315000005002BFE2368013B23600D4B0E4C1A78032A01
S3150000051005D021680029F0D1012A00D100BE0122B0
S31500000520BD461A70084B00202360B0BD544200201F
S3150000053020420020986200004D640000AB6200007B
S315000005400440002000400020A0860100F0B585B0E0
S31500000550029302AB0800D91D0123019208701A000C
S31500000560234800F0C8FC234F386060B1F421224BC9
S31500000570224A234800F0A0FE01210800FFF7ECFD07
S315000005802368013B23601F4D1F4C2B78032B05D09E
S315000005902268002AF0D1012B00D100BE01231B4E98
S315000005A02B70029A002301991148266000F08EFCF8
S315000005B0386078B940F2E8372B78022B04D02268ED
S315000005C06AB9012B00D100BE012300202B702660E2
S315000005D005B0F0BD40F20611074B084AC9E73900DD
S315000005E00120FFF7B9FD2368013B2360E4E7C0461D
S315000005F05442002020420020986200005C64000003
S31500000600AB6200000440002000400020A0860100EC
S315000006100379022B02D10122014B1A707047C046A2
S315000006201C42002007B50122019001A9074800F0ED
S3150000063017FB074B186000B100BE064B1A78002A5C
S31500000640FCD0002201981A700EBDC0462C42002034
S31500000650204200201C42002070B50E001400002528
S31500000660A54201DB200070BD7057FFF7DBFF0135A7
S31500000670F6E7FFFF0122034B1A7008B102791A70E0
S315000006807047C0460440002070B5434943488CB0CB
S3150000069000F086FA424C206028B16321414B424A61
S315000006A0424800F009FE424D424801F00DFF280085
S315000006B0414900F035FC0200206018B16A21394B2F
S315000006C0394AEDE740F20C113C4800F061FB3C4B27
S315000006D00A2008933B4B0B9509933B4B0A93FFF774
S315000006E0E7FE05A908A800F09FF86B46B4211A7D1D
S315000006F0364801F085FE6B461B7DB42B00D0FEE725
S31500000700022108A800F0D2F8012404AD290008A8A7
S3150000071000F0FBF82B781D0025402342F5D1290077
S3150000072008A800F0C3F806A908A80D8000F088F80C
S31500000730274B07A908A8079300F06EF902A908A895
S3150000074000F0FEF96B466A461B7A02A9A34308A885
S31500000750137200F0C9F903AC210008A800F01FF9D4
S315000007602378DA079B071343F5D51A4E07A93200FB
S3150000077008A800F081F9306801F0D6F80400B068E6
S315000007800D0001F0D1F82200009001912B001248D3
S3150000079001F036FEDFE7C046746400002C420020FC
S315000007A020420020986200006A640000AB620000EC
S315000007B054420020BE6200009C64000024420020D7
S315000007C0BD0400004D050000B1040000C562000034
S315000007D0000202010C420020E662000010B518B9C2
S315000007E00122054B1A7010BD0228FCD103490448AA
S315000007F000F0FEFAF7E7C04690C07E40DC640000D9
S315000008002442002010B518B14468C068A04710BD46
S3150000081001204042FBE710B518B10468C068A04744
S3150000082010BD01204042FBE737B56B460C00DD1DCD
S315000008302A0001230F21FFF7E5FF2B7823703EBD29
S3150000084037B501230D0001AA0E210400FFF7DAFFD8
S3150000085058BB6B467F212A781B799208D2010B4040
S3150000086013436A46200013717139012301AAFFF769
S31500000870D2FFD0B901236A4619212000FFF7C2FF33
S3150000088098B9202203216B7820005B011340AA78D7
S315000008900A4013436A46127820318A4313436A4654
S315000008A00A3913700123FFF7B6FF3EBD73B501ADDC
S315000008B00E0002232A0011210400FFF7A3FF18BB34
S315000008C06A462B7869781370012E06D0022E00D066
S315000008D05EB16B461A78042302E0802312785B42ED
S315000008E013436A46137001230AE008231278134360
S315000008F06A46137001220A432B706A7002232A008B
S3150000090011212000FFF787FF76BDF0B587B004AE52
S3150000091001910123320011210400FFF773FF03AF99
S3150000092005AD98B901233A0024212000FFF76AFF9C
S3150000093060B901232A0027212000FFF763FF28B9A9
S3150000094001230B21200002AAFFF75CFF32783B78D7
S315000009505107DB09C90F5B000B432978D207CC0787
S31500000960640F23438C07E40FE4002343CC06E40F13
S3150000097089062401C90FD20F23434901D2430B43F1
S31500000980402192010A40134302AA12789206D20F1E
S31500000990D243D2011343019A137007B0F0BDF0B5EC
S315000009A087B005AF019101233A0027210400FFF724
S315000009B029FF04AE03AD60B90123320024212000D3
S315000009C0FFF720FF28B901232A0026212000FFF780
S315000009D019FF3A789307DB0FD207D20F5B00134358
S315000009E03278D107490F0B439107C90F5207C90047
S315000009F0D20F0B43120113432A789106C90F4901FE
S31500000A000B435106C90F8901D2090B43D201134387
S31500000A10019A137007B0F0BDF7B501AC0D000223C3
S31500000A20220010210600FFF7EDFE18BB78210727EC
S31500000A306B782278DB000B40A978607839400B434D
S31500000A407F218A431343EA786F399707FF0F120114
S31500000A507F010A403A4340272D782370AD013D407F
S31500000A602A437025A8430243627002232200300005
S31500000A70FFF7D1FEFEBDFFFF73B505230E00140080
S31500000A8028216A46FFF7BEFE6B46050098785B781C
S31500000A900002C0186B461B780002C0180002606096
S31500000AA033789BB1012B18D000206B466A46206034
S31500000AB01B79D0781B02C01800B2A08100F0ECFEB2
S31500000AC0084900F097FCA060280076BD00F0E4FE1F
S31500000AD0D621890500F0A0FDE7E700F0DDFED8216C
S31500000AE0F7E7C0460000C84237B501230D0001AA4A
S31500000AF013210400FFF786FE08BB2A7893075107E7
S31500000B00DB0FC90F5B000B431107C90F89000B43AD
S31500000B100E211140481E8141D20709010B43920E56
S31500000B2013436A46372112790B408A4313436A46B8
S31500000B30200013712439012301AAFFF76CFE3EBD84
S31500000B4037B501AD0C002A0001231321FFF75AFE29
S31500000B502A7893079106DB0FC90F5B000B43D10779
S31500000B60490F0B430F215207D20FD20013432278AD
S31500000B700B408A43134323703EBD10B5FFF784FD37
S31500000B80002010BD1FB5036A4BB1C46924780291D9
S31500000B9069460A71426A00946846039298471FBDE7
S31500000BA0F8B5C1614B69040003628B690D004362AD
S31500000BB0254B8361EFF31081012787F31088234BC0
S31500000BC023485A6802405A605B6881F31088E369DB
S31500000BD0A269DE691F487368597811711978E3694B
S31500000BE01D4A1B78D1546B78E978DB0089000B43EA
S31500000BF0A978A269415C05200B4371780B433178D3
S31500000C00B9400B43DBB2D3700322A3699A70A36980
S31500000C1080329A7000236361E360A36960329A7040
S31500000C20297922002856FFF73BFB7368390058885C
S31500000C30FFF792FA0720A97928562200FFF730FB22
S31500000C40064B00206360F8BD00340A40FC6F044088
S31500000C50FF7FFFFF1865000000350A4054524155DA
S31500000C6070B50400C36907200E0015001856FFF77B
S31500000C7007FB731CA36002230720A269013DE56000
S31500000C8091780B439370E3691856FFF7F1FA3278BF
S31500000C90A36900201A7070BD10B5EFF30383103BF3
S31500000CA00E4A5BB29B009858C26883694AB1826853
S31500000CB012781A70C368013BC3608368013383608E
S31500000CC010BD9C78022221001140144203D099786D
S31500000CD091439970F4E7FFF755FFF1E7B042002022
S31500000CE010B5EFF303830724103B104A5BB29B0059
S31500000CF0985882695178537994710D4A2340D25C91
S31500000D00C9B212B1FFF73EFF10BD43690422002BA2
S31500000D10F8D0036919700369416901330139036128
S31500000D2041610029F0D10122ECE7C046B042002023
S31500000D3010650000EFF31080012383F31088064B43
S31500000D40196819B9054A1170403111701A680132D3
S31500000D501A6080F310887047AC42002040030A40B6
S31500000D60EFF31081012383F31088074B1A6812B141
S31500000D701A68013A1A601A681AB9044B1A70803256
S31500000D801A7081F310887047AC42002040030A4075
S31500000D900123C8B2834000209BB20AB91800130091
S31500000DA0034A090A49018918088100204B817047C6
S31500000DB000000A4070B50400FFF7BCFF0022FF20C8
S31500000DC00A4D2388934202D8FFF7CAFF70BD6168B7
S31500000DD0D300C9188E880968330A1B0106409B197F
S31500000DE089B25B000132595392B2EAE700020A4027
S31500000DF010B5034B03600800FFF7DCFF002010BDB1
S31500000E0054524F50EFF31080012383F31088064BA2
S31500000E10196819B9054A1170403111701A68013202
S31500000E201A6080F310887047AC42002040030A40E5
S31500000E30EFF31081012383F31088074B1A6812B170
S31500000E401A68013A1A601A681AB9044B1A70803285
S31500000E501A7081F310887047AC42002040030A40A4
S31500000E60012307B521B9431DDA7F03239B1ADBB2A1
S31500000E70026B00926A461371C36A6846984707BDBB
S31500000E800100002330B5021D0831D377C361CB774B
S31500000E9020310B70C41DE57F0A4902305DB90A4C4A
S31500000EA0023365782B436370D37FC07F0133D377DA
S31500000EB00870002030BDE377C37F0120D0770B7028
S31500000EC0F7E7C04600300A40FF300A4010B5841DDF
S31500000ED0E3778261027A4161012A06D14368811C67
S31500000EE05B001343CB77C31CDA770122431DDA7705
S31500000EF0FFF7C6FF10BD10B5841DE3778261027A45
S31500000F004161012A05D14368811C5B00CB77C31C74
S31500000F10DA770022431DDA77FFF7B2FF10BDFFFF35
S31500000F20F8B501608B68040043600B7B0A0003720E
S31500000F30CB69C3620B6A0363EFF31080012383F36B
S31500000F4010882B4B2B4D5968294059605B6880F3FC
S31500000F5010882368284E5D6A2848AB78F3706B7852
S31500000F603371236829785F68EB789B000B438742CF
S31500000F703BD11020DBB2B370517B10562200FFF735
S31500000F808FF97F2273781340737002232A791343F3
S31500000F901B4A93709C22737813437370FFF732FFDA
S31500000FA0FF212E8A6869330A1B010E40154A9B19D8
S31500000FB080B25B0098522889030A1B010840E96841
S31500000FC01B1889B25B009952FFF732FF0020631DA0
S31500000FD06061A061E061D877A31DD8770233D87726
S31500000FE0E31DD877084BE360F8BD08210B43C0E743
S31500000FF0FC6F0440FFFBFFFFFF300A40A0860100A4
S3150000100000300A4000020A404349495270B5EFF3E6
S315000010100383103B324A33495BB29B0098584B78A6
S31500001020DAB25B0703D4030028331B7823B153B22B
S31500001030002B01DA53060DD5012314001C401A4279
S3150000104008D102000832D377274A846151780B43CE
S31500001050537070BDC46983699C4228D2431DDB7FEF
S3150000106033B943691B5D0B70C3690133C361F0E794
S315000010700200283215781C4B097845B901211170F8
S315000010802C2259789143083A0A435A70E1E742699B
S315000010901155C26981690132C2618A4204D12C228A
S315000010A059789143043AEFE720225978ECE7012179
S315000010B00A4206D003000833D97FC9B2FFF7D0FE33
S315000010C0C7E7831DDA7F084B0AB95A78DCE70222A4
S315000010D05C7822435A70C31DD9770133ECE7C046CA
S315000010E0B042002000300A40FF300A4040F20A2297
S315000010F030B50F4B995C8909814218D040F20B2418
S3150000110001211D5D29431955022805D0995C8909DD
S31500001110022901D08021995440F20A2240F20B2183
S315000011208001C0B2985401205A5C82435A5430BDA3
S3150000113000C07E40F8B540F623050127264C665DC3
S31500001140BE436655665DB607F70F002EFADB01262D
S31500001150B04224D840F62105675DB7436755665D02
S31500001160B607FCD4012640F6200588B9605DB04379
S315000011706055605D8007FCD440F61800215440F6A7
S315000011801901625440F61A02A354FEF7ADFFF8BDEA
S31500001190615D0E436655615D8907FCD5EFE703285F
S315000011A008D140F62101605C30436054605C8007E2
S315000011B0FCD5E4E740F6220102280AD16654012153
S315000011C0605D014340F623006155215C8907FCD52B
S315000011D0D5E76754F3E7C04600E001407047FFFFDC
S315000011E040F6FE0370B5294A294C2A49E2522A4B99
S315000011F02A4AD9601A602A4A5A6048F200029A605E
S315000012001A61FEF771FF40F600035A2240F62401E8
S31500001210E254635C93B1234B2348DA680240DA60F8
S31500001220DA687F252148C27A2A40C2728022D868AD
S3150000123012040243DA60DB680023635440F61103AC
S315000012400722E254053BE25CDAB10022E2540320B5
S31500001250FFF74CFF002240F60B03E25440F6100263
S31500001260A35CFF2BFCD1002303201A001900FFF713
S3150000127061FF0220FFF73AFF40F6FE030C4AE252F6
S3150000128070BD40F2E830FFF7A9FFE0E703A5FFFFD6
S3150000129000E0014000127A00DC4100200048E8012D
S315000012A000093D00FC6F0440FFFF7FFF002C0A4051
S315000012B000A5FFFF7047704700BEFEE710B50B4A5A
S315000012C00300116809B90A49116003211068033344
S315000012D08B430849C3188B4206D901F033FA0C2315
S315000012E003600120404210BD1360FCE75843002014
S315000012F0B0440020B064002070B50025184B194A90
S3150000130000209A60FFF76AFAFFF76AFF0120FFF7ED
S3150000131065FA1548154A0021121A01F0C1F9144858
S31500001320144A1549121A01F021FA144C144BE41A06
S31500001330A410A5420CDBFEF7D7FEFFF7BBFF022089
S31500001340FFF74CFAFEF7B4FF0020FFF7B4FF70BDBD
S315000013500B4AAB009B181B6898470135E9E7C04666
S3150000136000ED00E000000000F0410020AC44002049
S3150000137000400020DC410020E0670000D84100204A
S31500001380D441002002B4714649084900095C49006D
S315000013908E4402BC7047C046F0B54FF6FF75040098
S315000013A0CE462C40474615400E002900994680B58A
S315000013B0130C0700000C61434543584363430C0C70
S315000013C05B19E4188C46A54203D980235B02984634
S315000013D04044230C61461B184FF6FF7008404946EF
S315000013E056437943240489192018C918C0BCB94644
S315000013F0B046F0BDF0B546464F46D646C0B54700A6
S315000014004502C30F3F0E98460E1C6D0A002F56D09C
S31500001410FF2F21D0802340F2000940F2000AED00A0
S31500001420DB041D437F3F730074021B0E640AF60F34
S3150000143003B3FF2B4AD080220020E400D2041443D9
S315000014407F3B4246FF1A4B4672400F2B00D9AAE05B
S315000014506E499B00CB589F46002D59D173007402EC
S315000014601B0E40F20809FF2740F2020A640AF60F33
S31500001470002BDED174BB0123424649467240194314
S315000014800E2904D86248890041588F464246FF20FB
S315000014900024C0052043D2071043E0BCBA46B1463B
S315000014A0A846F0BD5346022BF0D0032B00D1A2E094
S315000014B042462C00012B34D100200024E9E7D5B99F
S315000014C040F20409002740F2010AACE764B902239E
S315000014D0FF3FD1E7200000F06BFA431F9C407623C4
S315000014E05B421B1A0020ACE703234A461A43914687
S315000014F00320FC33A5E7280000F05AFA7627431F9D
S315000015007F429D4040F2000940F2000A3F1A8AE7F6
S3150000151040F20C09FF2740F2030A84E703286CD047
S31500001520320038007F30002825DD630704D00F2302
S315000015302340042B00D00434230103D53800354B57
S3150000154080301C40FE28A2DCA401640AC0B2A0E7D9
S3150000155080240022FF20E4039BE78023DB031D4257
S3150000156001D01C424BD08024E4032C436402424643
S31500001570FF20640A8DE701231B1A1B2B9CDC21002C
S315000015809E37D940BC400B00611E8C41234359074E
S3150000159004D00F211940042900D00433590126D55F
S315000015A00120002475E76D016001854213D21B23DB
S315000015B00024013F0126290064006D00002901DB9B
S315000015C0A84201D82D1A3443013B002BF3D16B1EE0
S315000015D09D412C43A5E71A2301242D1AEAE7981EFC
S315000015E043425841404232000024C0B251E79B01B9
S315000015F000205C0A4DE746462C008023DB031C4393
S3150000160064023200FF20640A43E7C0461C650000FE
S315000016105C650000FFFFFFF7F0B54F464646D6462D
S31500001620C0B546004502360E0F1C6D0AC40F002ECB
S3150000163000D1C4E0FF2E79D0802340F2000940F2A9
S31500001640000AED00DB041D437F3E7B025B0A9846E1
S315000016507B001B0EFF0F002B78D0FF2B00D195E0EF
S3150000166042468021D200C9041143884600217F3BAF
S31500001670F6184B46721C0A2B74DC4B467C40022B38
S3150000168000DCA6E048460123834040F23050184271
S3150000169068D140F24020184200D0ECE0B938FF385B
S315000016A0184200D0DAE04FF6FF714746280C434651
S315000016B00D4039400F001B0C6F4341435D435843B7
S315000016C06D183B0C5B19994203D9802149028C465F
S315000016D060444FF6FF7519043D4049198D016F1E90
S315000016E0BD411B0C890E1B180D439B011D431B019D
S315000016F000D4C5E0012369081D400D4310007F306A
S31500001700002800DC93E06B0704D00F232B40042B4A
S3150000171000D004352B0103D5803210005D4B1D40EF
S31500001720FE2853DCAB015B0AC0B226E0002D00D0D8
S3150000173077E07B025B0A98467B001B0E40F20809A5
S31500001740FF2640F2020AFF0F002B86D14346002BEC
S3150000175055D14A4601331A4391464B460121721C24
S315000017600A2B8ADD5346022B30D0032B00D17BE0B7
S315000017705346012BC2D100200023C0051843E407BD
S315000017802043E0BCBA46B146A846F0BD3300424607
S31500001790FF33FAB3032249461143721C8946FF32CE
S315000017A00A2973DD0F295DD18023DB031D425BD03F
S315000017B042461A4258D13C00FF201343DDE78DB95B
S315000017C040F20409002640F2010A3EE7FF2000230A
S315000017D0D3E7013B012B00D965E70229F6D0454640
S315000017E08A46C5E7280000F0E3F87626431F7642CE
S315000017F09D4040F2000940F2000A361A25E74046AD
S3150000180000F0D6F84246431F9A40361A9046002109
S31500001810763E2EE749460232114389461E000221D2
S3150000182027E740F20C09FF2640F2030A0DE70123E1
S315000018301B1A1B2B9FDC9E3229009540D9406A1E3D
S3150000184095410D436B0704D00F232B40042B00D08A
S3150000185004356B0116D5012000238EE73C00454672
S315000018608A467FE73C0045468023DB032B435B0229
S31500001870FF205B0A81E780230024FF20DB037CE74F
S3150000188032003BE7AB0100205B0A76E71E0003212E
S315000018907C40F7E6FFFFFFF770B598B1C317C51890
S315000018A05D40C40F280000F083F89E2301001B1A38
S315000018B0962B0FDC082831D008398D406D026D0A51
S315000018C0D8B202E0002400200025C0052843E40722
S315000018D0204370BD992B15DC421F95402A00150048
S315000018E010480540560709D00F263240042A05D075
S315000018F004356A0102D59F2305405B1AAD016D0AC6
S31500001900D8B2E2E70522121A2800D0400A001B329C
S3150000191095402A00551EAA410243E0E76D02962033
S315000019206D0AD2E7FFFFFFFB70B542024300C40F0A
S31500001930FE201B0E591C550A08420BD040F2803C73
S315000019406D07120B63441B051343E407234328006A
S31500001950190070BDABB9EDB1280000F029F80A28CE
S315000019601FDC0B232A001B1ADA40030015339D40A7
S3150000197040F2893140F2FF731203091A120B0B4031
S31500001980E1E755B1130B802212031A436D0740F2AB
S31500001990FF73D8E700230022D5E740F2FF73002249
S315000019A0D1E703002A000B3B9A400025E0E7C0463A
S315000019B01C2101231B04984201D3000C10391B0A79
S315000019C0984201D3000A08391B09984201D300093D
S315000019D0043902A2105C40187047C0460403020294
S315000019E0010101010000000000000000F0B51F0029
S315000019F0002316008BB09F4204DA802109067B186B
S31500001A001F002D23129A149D1370202303229D4339
S31500001A10462D07D02B00453B59424B411099013AC0
S31500001A20CB18109309AB049308AB0393139B009256
S31500001A300293109B320001933B0000F02FFF04003D
S31500001A40472D1AD1119BDB0710D5109BC31807939E
S31500001A50002200233000390002F05EFC08B1079B2B
S31500001A6009933022099B07998B421FD32000099BBB
S31500001A70159A1B1B13600BB0F0BD109BC318079380
S31500001A80462DE5D10378302B0BD100220023300000
S31500001A90390002F041FC20B90123109A9B1A139ACF
S31500001AA01360139B079A1B68D318D0E7591C09913A
S31500001AB01A70D7E7F7B52B230270002901DA4942DD
S31500001AC002334370092926DD6B46DA1D15000A2705
S31500001AD091FBF7F63B007343CB1A30331400013AFF
S31500001AE013700B003100632BF2DCA61E3031831C11
S31500001AF0317032001900954208D80022B54202D34F
S31500001B0009326A44121B9B18181AFEBD1778013257
S31500001B100F700131EFE7302330318370C170031D40
S31500001B20F2E7FFFFF0B597B00D000A921C9C0B93ED
S31500001B30099000F0BDFD036818000D9300F01FFE2C
S31500001B4000230F9014932B7E07220C932B680E9381
S31500001B500E992368C90542D59B1893431A0008328B
S31500001B60226001221E685F687B005B081193109655
S31500001B70AE64EF6410981199A54B524204F084FAB2
S31500001B8000282ED1109811990122A14B524202F041
S31500001B90D3FB30BB002200233000390002F0C2FB29
S31500001BA018B12B002D2243331A700C9B472B2AD8D1
S31500001BB0984F032300240E9A2B6101339A432A601F
S31500001BC00B9B2900009309980A9B15AA00F0E2F9DD
S31500001BD0013000D09EE00120404217B0F0BD07332F
S31500001BE0BBE732003B003000390004F04DFA70B11B
S31500001BF0002F03DA2B002D2243331A700C9B472B40
S31500001C0003D8854FD5E7854FD3E7854FD1E7202207
S31500001C100C9C6B6894435A1C46D107336B6040F2A8
S31500001C2000430E9A0AA9134300222B60069214AAB7
S31500001C3005920C9A0193049213AA03922322521836
S31500001C4002926B683200009309983B00FFF7CEFEC4
S31500001C50139A0700472C2DD1D31C02DB6B689A42DE
S31500001C6045DD0C9B023BDBB20C93280013990C9AC2
S31500001C70013950301391FFF71DFF149A0400131811
S31500001C802B61012A02DC2A68D20701D501332B61B8
S31500001C9023230AAA9B181B78002B00D190E72B0060
S31500001CA02D2243331A708BE7472CB8D1002BB6D1BF
S31500001CB00133B3E70C9B652BD7D90C9B662B18D148
S31500001CC06B68002A08DD2A6113B92968C9070AD595
S31500001CD001339B182B6106E01BB9012229681142CA
S31500001CE000D09A1C2A61139B0024AB65D0E76723BA
S31500001CF00C931399149B994206DB2B682961DB0729
S31500001D00F1D501312961EEE701220029E1DC9218C3
S31500001D10521ADEE72A68530508D42B693A000A9955
S31500001D2009980B9CA047013028D154E70C9B652BE2
S31500001D3000D8DAE0A86CE96C0022002302F0ECFA85
S31500001D4098B30123374A0A9909980B9CA04701309A
S31500001D5000D140E7149E139BB34202DB2B68DB07DE
S31500001D600CD50B9C0F9B0D9A0A990998A047002445
S31500001D70013000D12FE7731EA3420ADC2B689B07B4
S31500001D8000D505E1159BE868984200DB25E71800B9
S31500001D9023E72A0001230A9909980B9F1A32B847AC
S31500001DA0013000D117E70134E5E7139B002B3BDC3C
S31500001DB001231C4A0A9909980B9CA047013000D1BF
S31500001DC009E7149E139B334313B92B68DB07D5D55C
S31500001DD00F9B0D9A0A9909980B9CA0470023013086
S31500001DE000D1F8E60C93139B0C9A5B42934201DCFC
S31500001DF0330093E72A0001230A9909980B9C1A32AB
S31500001E00A047013000D1E6E60C9B0133EAE7C04665
S31500001E10FFFFEF7F166300001E6300001A630000D9
S31500001E202263000026630000149BAE6D0C939E4255
S31500001E3000DD1E00002E31DCF3430024DB173340A7
S31500001E400E93AE6D0E9BF31AA34230DC139B0C9AD5
S31500001E509A4238DC2B68DB0735D4139C0C9B0C9A12
S31500001E609B1B141B9C4200DD1C00002C34DCE3434E
S31500001E700026DB171C40139B0C9AD31A1B1BB3427C
S31500001E8000DC7BE72A0001230A9909980B9F1A3286
S31500001E90B847013000D19EE60136ECE733003A0040
S31500001EA00A9909980B9CA0470130C5D193E62A00F0
S31500001EB001230A9909980B9E1A32B047013000D1C6
S31500001EC089E60134BDE70F9B0D9A0A9909980B9C88
S31500001ED0A0470130C1D17EE6BA1923000A990998B4
S31500001EE00B9EB0470130C2D175E6149B0C93012BB3
S31500001EF002DC01231A4238D001233A000A990998D4
S31500001F000B9EB047013000D165E60F9B0D9A0A99EA
S31500001F1009980B9EB047013000D15CE6A86CE96CCD
S31500001F200C9B0022013B0C93002302F0F5F9D0B97B
S31500001F300C9B7A1C0A9909980B9EB04701300ED16A
S31500001F4049E62A0001230A9909980B9F1A32B847D5
S31500001F50013000D13FE601360C9B9E42F1DB2A00A0
S31500001F6023005032DBE60026F6E73A00E2E72A00D5
S31500001F7001230A9909980B9E1932B047013000D106
S31500001F8029E60134EB68159A9B1AA342EFDCF9E6C1
S31500001F900024F7E7F7B5160001938A680B690C0071
S31500001FA00090934200DA1300220033604332127825
S31500001FB00AB10133336023689B0602D533680233C6
S31500001FC033602268062315001D401A4227D02300DD
S31500001FD043331B785A1E93412268920630D422005E
S31500001FE001990098089D4332A847013025D0062262
S31500001FF0236800251340042B05D13368E568ED1AE4
S31500002000EB43DB171D40A3682269934201DD9B1A4F
S31500002010ED180026B54220D1002010E00135E36816
S3150000202032689B1AAB42D2DD220001230199009847
S31500002030089F1932B8470130F0D101204042FEBD59
S315000020403020E1184331087021005A1C45310978C7
S31500002050A218433202331170C1E72200012301990D
S315000020600098089F1A32B8470130E6D00136D1E70A
S31500002070F0B50E0089B00492039005930C00097E1A
S315000020800E9A4336782907D8622909D8002900D143
S31500002090B7E0582900D1A0E025004235297022E09A
S315000020A0080063381528F7D802F01CF916001F003F
S315000020B0F6FFF6FFF6FFF6FF1F00F6FFF6FFF6FF48
S315000020C0F6FF9E0034004300F6FFF6FFAF00F6FF72
S315000020D03400F6FFF6FF4700250013684235191D48
S315000020E01B6811602B7001239CE013682068191D82
S315000020F0050609D51B681160002B02DA2D225B420A
S3150000210032700A225B4832E01B6811604006F3D544
S315000021101BB2F1E71068256808C82F0602D46D06C1
S3150000212000D59BB21060082252486F291BD00A22A4
S3150000213019E0202321680B43236078214E482300B1
S31500002140453319701568216808CD0F0602D44F066D
S3150000215000D59BB21560CA0702D520220A43226029
S31500002160002B3CD010222100002543310D70616800
S31500002170A160002908DB40F2040C67462568194374
S31500002180BD432560350061B13500B3FBF2FC614605
S315000021905143591A415C013D2970190063468A4230
S315000021A0F3D9082A09D12368DB0706D562682369B3
S315000021B09A4202DC3023013D2B70761B2661059B7B
S315000021C0210000930398049B07AAFFF7E3FE013062
S315000021D02CD10120404209B0F0BD2648AFE72021AE
S315000021E022688A432260BDE713682568181D616965
S315000021F010601B682F0601D5196002E06D06FBD53D
S315000022001980002335002361D9E71368191D116071
S315000022101D6800212800626800F09DFA08B1401B85
S3150000222060606368236100233370C8E72A0023696E
S3150000223004990398059DA8470130CAD023689B07D7
S3150000224015D4079BE0689842C5DA1800C3E7220058
S31500002250012304990398059E1932B0470130B8D07E
S315000022600135E368079A9B1AAB42F0DCE9E70025E3
S31500002270F7E7C0462863000039630000002310B565
S31500002280040003604360836081814366C281036109
S3150000229043618361190008225C3000F001FA0B4BA0
S315000022A0246263620A4BA3620A4BE3620A4B23630E
S315000022B00A4B9C4205D00A4B9C4202D0094B9C42D9
S315000022C003D12000583000F043FA10BDDD24000091
S315000022D0052500003D25000069250000604300201B
S315000022E0C84300203044002010B5034A034904487F
S315000022F000F06AF810BDC0460C400020D140000036
S315000023001C40002041680B4B10B50400994201D0D7
S3150000231001F0DEFEA168084B994202D0200001F0D0
S31500002320D7FEE168054B994202D0200001F0D0FEAD
S3150000233010BDC04660430020C84300203044002042
S3150000234010B5094B094A04211A6009480022FFF713
S3150000235095FF012209210748FFF790FF022212216B
S315000023600548FFF78BFF10BD98440020E9220000C6
S3150000237060430020C84300203044002010B50248C6
S3150000238000F0E7F910BDC046A144002010B5024890
S3150000239000F0E0F910BDC046A144002010B50400CD
S315000023A0FFF7ECFF236A13B1FFF7F0FF10BD044BF4
S315000023B02362044B1B68002BF6D1FFF7C1FFF3E73E
S315000023C00523000098440020F7B51400002600906D
S315000023D00191A5686768013F04D52468002CF8D1EF
S315000023E03000FEBDAB89012B08D90E22AB5E01334E
S315000023F004D029000098019B984706436835EAE710
S315000024000FB407B5054904AB086804CB816801938E
S3150000241001F0C6FC03B008BC04B018471840002001
S31500002420036A70B505000E0084680BB9FFF7B6FFA6
S31500002430636EDB0705D4A3899B0502D4A06D00F06B
S3150000244088F9A3891B0701D52369F3B92100280060
S3150000245000F0CEF8C8B101256D42636EDB0705D4E6
S31500002460A3899B0502D4A06D00F074F9280070BD05
S315000024700136A360002B04DAA2699A4216DC0A2907
S3150000248014D023685A1C22601970A3683178013B66
S315000024900029EDD1A360002B0FDA220028000A31B3
S315000024A000F068F80130D6D00A25D6E722002800C9
S315000024B000F060F80130E8D1CDE723685A1C2260AD
S315000024C00A221A70F0E7FFFF10B5034B01001868E7
S315000024D0FFF7A6FF10BDC0461840002070B50C00DF
S315000024E00E25495F00F00AF9002803DB636D1B180F
S315000024F0636570BDA389024A1340A381F9E7C0460C
S31500002500FFEFFFFFF8B51F008B8905000C001600D2
S31500002510DB0505D50E23C95E0022022300F0DCF898
S31500002520A389054A28001340A38132000E23E15EE9
S315000025303B0000F0F5F8F8BDFFEFFFFF70B50C00AB
S315000025400E25495F00F0C8F8A389421C03D1054A4D
S315000025501340A38170BD41F200021343A38160655D
S31500002560F8E7C046FFEFFFFF10B50E23C95E00F087
S31500002570A3F810BDF8B506000D00140018B1036AE3
S315000025800BB9FFF70BFFA369A360A3891B0701D54E
S31500002590236943B92100300000F02AF818B101255B
S315000025A06D422800F8BD23692068EFB2C01A63693E
S315000025B0EDB2834205DC2100300001F089FD0028E0
S315000025C0EDD1A3680130013BA36023685A1C226049
S315000025D01F706369834204D0A389DB07E1D50A2D06
S315000025E0DFD12100300001F073FD0028D9D0D6E7F5
S315000025F02A4B70B5050018680C0018B1036A0BB9B0
S31500002600FFF7CCFE0C22A35E1A0722D4DA0607D403
S3150000261009222A60402201201343A381404237E069
S315000026205B0712D5616B41B123004433994202D056
S31500002630280000F009FF002363632422A389934343
S31500002640A38100236360236923600823A2891343BF
S31500002650A38123695BB940F2802140F20022A3895D
S315000026600B40934203D02100280001F083FD0C2289
S31500002670A35E01211A000A400B420AD00022A26082
S3150000268062695242A261226900200AB91A06C1D4BF
S3150000269070BD990700D46269A260F4E71840002073
S315000026A003008218934200D1704719700133F9E78D
S315000026B00048704758410020002370B5054D0400BE
S315000026C008002B6003F084FD431C02D12B6803B184
S315000026D0236070BD9C44002070B504000800110002
S315000026E01A000023044D2B6003F08EFD431C02D11B
S315000026F02B6803B1236070BD9C44002070B50400B4
S31500002700080011001A000023044D2B6003F086FD1B
S31500002710431C02D12B6803B1236070BD9C4400208A
S3150000272070B50400080011001A000023044D2B6048
S31500002730FDF792FF431C02D12B6803B1236070BDE5
S315000027409C440020014B18687047C0461840002082
S31500002750704770477047C9B28218904201D1002075
S31500002760704703788B42FBD00130F6E7002310B5A3
S315000027709A4200D110BDCC5CC4540133F8E7002363
S31500002780C25C0133002AFBD1581E7047F0B50369BD
S315000027900C69050089B00020A3426ADB0B00013CEE
S315000027A01433A00004931B1805932B001433181838
S315000027B00193059B02681B680133B2FBF3F6029690
S315000027C09A422FD3019B049F9C46002303930793B1
S315000027D008CF029A9EB25643039A1B0CB618029A69
S315000027E05343320C9B181A0C039262461268B6B217
S315000027F006926A46128B9BB2921B079E9219069E00
S31500002800360CF31A16149E1933140793634692B2C4
S315000028103604324304C39C46059BBB42D8D20368A8
S31500002820002B2BD0280001F085F9002820DB00279B
S31500002830019E0499336801C903936B469B8982B252
S315000028409A1A039BD219000C1B0C1B1A10141B1886
S315000028501F1492B21B041A43059B04C68B42E9D28D
S31500002860019AA300D3181A688AB1029B0133029316
S31500002870029809B0F0BD036823B9013C019B0438F6
S315000028808342F8D32C61CDE71A6822B9013C019A3C
S31500002890043B9A42F8D32C61E7E7FFFFF0B514003A
S315000028A01D00C6699DB00A940B95259F03907EB9BD
S315000028B0102000F011FE039B0200D86120B9EF2121
S315000028C0BF4BC048FEF7F8FC466086600660C660EF
S315000028D0039BDB69196859B15A68012393404A6022
S315000028E08B60039800F0F4FE0022039BDB691A60FC
S315000028F0002D19DA01233B606B005B080B930B9FDD
S31500002900B14BB14A3B4093421DD142F20F73249A18
S3150000291013603B031B0B2343002B01D100F069FD21
S31500002920269B63B9A94B23E000233B60E7E7A84B4E
S315000029300893A84B269A136008981DB0F0BDA34BC8
S315000029400893A54BF6E70A9A0B9B129213931298DB
S3150000295013990022002301F0DFFC060050B1012389
S31500002960249A1360269B13B19C4B269A13609C4BAA
S315000029700893E1E71AAB01931BAB00930398129AF5
S31500002980139B01F089F97A00520D0590002A79D03F
S31500002990139B18961903934B090B0B43924957182F
S315000029A01298139919000022904B02F09BFF904A4F
S315000029B0904B02F0BDFC904A904B01F0DBFC04000A
S315000029C038000D0003F0B4FB8D4A8E4B02F0B0FCCC
S315000029D002000B002000290001F0CCFC04000D00D1
S315000029E003F06EFB0022049000232000290001F072
S315000029F099FC58B1049803F09BFB2B00220001F0D0
S31500002A008BFC43425841049B1B1A049301231593E4
S31500002A10049B162B0FD8129813997B4ADB009B1840
S31500002A201A685B6801F07EFC002849D0049B013BD4
S31500002A3004930023159300221A9B0992DB1B5A1E4E
S31500002A4040D50122D31A099300230E93049B002B31
S31500002A503ADB049A0E9B944663440E930023149229
S31500002A600F93229B0124092B62D8052B02DD00243B
S31500002A70043B2293229B981E032863D8FEF782FC10
S31500002A8054563A2D1B9B1A9EF61840F23243F21802
S31500002A90202A10DD40239B1A9F4040F21243F31870
S31500002AA0DC403800204303F06FFB0122574B771EB2
S31500002AB0CB18189276E7202320009B1A9840F2E75D
S31500002AC01590B8E70E92C1E7099B049A9B1A0993E1
S31500002AD053420F9300231493C3E70123239A1093C1
S31500002AE09446049B6344069301330C93002B08DC45
S31500002AF0012306E001231093239B002B26DD06937A
S31500002B000C93039A0021D0690422150014359D42C6
S31500002B1021D94160039800F09BFD0890F0B90200AE
S31500002B2040F2AF113A4BCCE60023E4E70023D5E7A9
S31500002B30002310942293013B002206930C93133337
S31500002B402392DEE701231093023BF5E701231A00E7
S31500002B5006930C93F4E701315200D6E7039B089ADB
S31500002B60DB691A600C9B0E2B00D9D1E0002C00D13A
S31500002B70CEE0049B002B60DD0F2223491340DB00CF
S31500002B805B181E685F68049B02241D11DB050AD5CD
S31500002B90129813991F4B15401A6A5B6A01F06CFF75
S31500002BA00A900B9101341B4B0D93ADBB0A980B9900
S31500002BB032003B0001F060FF0A900B9157E0C046DF
S31500002BC0576300006E6300000000F07F536300004F
S31500002BD04A6300005263000056630000276300004A
S31500002BE0266300000000F03F01FCFFFF0000F83FF5
S31500002BF061436F63A787D23FB3C8608B288AC63FFD
S31500002C00FB799F501344D33FD0650000000010FEAF
S31500002C10C7630000A865000001231D4209D0E4181F
S31500002C200D9B30001A685B68390002F081FB0600D4
S31500002C300F000D9B6D100833B6E7049B0224B3B159
S31500002C40129813995D420F23D34A2B40DB009B1841
S31500002C501A685B6802F06CFB012700230A900B914F
S31500002C60CE4E2D11002D00D093E0002BA4D10A9E4C
S31500002C700B9F159B002B00D196E0002230003900F7
S31500002C80C74B01F04FFB002800D18DE00C9B002BB9
S31500002C9000D189E0069B002B36DD049B0022013B18
S31500002CA00D933000BF4B390002F042FB0A900B91A6
S31500002CB0069B01342000119303F03AFA0A9A0B9B03
S31500002CC002F036FBB84B002201F054FBB74B06006E
S31500002CD0CF18119B002B6BD10A980B990022B44B8D
S31500002CE002F000FE32003B0004000D0001F02EFB56
S31500002CF0002800D0A8E2802109067B1832002000B7
S31500002D00290001F00FFB40BB129B139C0A930B9406
S31500002D101B9B002B00DA71E1049A0E2A00DD6DE19F
S31500002D20D3009D4A9B185C681B6806930794239BF7
S31500002D30002B00DBE6E00C9B002B00DDE2E063B934
S31500002D400698079900229A4B02F0F2FA0A9A0B9B10
S31500002D5001F006FB002800D179E200263700239B0C
S31500002D60089CDB430D93049700273100039800F07D
S31500002D70AFFC049B002B00D1BAE02FB19F4203D0D9
S31500002D803900039800F0A4FC0499039800F0A0FC15
S31500002D90AEE03D4205D03268736802F0C9FA3B00E6
S31500002DA001346D1008365DE7049B0D930C9B81E79B
S31500002DB0119B794A013BDB0010999B181A685B68E6
S31500002DC000294CD000207B4901F056FE32003B0022
S31500002DD002F088FD089A060094460F00089B169399
S31500002DE0119B634411930A980B9903F069F9050046
S31500002DF003F09EF902000B000A980B9902F072FD8F
S31500002E00169B30355C1C1D7032003B000A900B91FE
S31500002E1001F088FA00286BD10A9A0B9B00206049C2
S31500002E2002F060FD32003B0001F07CFA002800D081
S31500002E30C4E0119BA34200D166E7002230003900AE
S31500002E40584B02F075FA002206000F000A980B99FB
S31500002E50544B02F06DFA16940A900B91C3E73000BA
S31500002E60390002F065FA089D119A2B0094461690D7
S31500002E701791634419930A980B9903F021F90400FA
S31500002E8003F056F90B0002000A980B9902F02AFD8E
S31500002E903034199B2C70013506000F00AB422AD145
S31500002EA016981799089B119C9C460022414B644436
S31500002EB001F060FA02000B003000390001F046FA1A
S31500002EC0002800D07AE0169A179B0020394902F0B4
S31500002ED009FD02000B003000390001F023FA00283A
S31500002EE000D111E72300013C2278302AFAD01C00D9
S31500002EF00D9B049340E000222A4B02F019FA0A9037
S31500002F000B91B8E70C9B089D013B5B190C930A9E3D
S31500002F100B9F069A079B3000390001F0ADFD03F0C8
S31500002F20CFF8099003F004F9069A079B02F000FA1D
S31500002F3002000B003000390002F0D4FC2B00099A85
S31500002F40013530321A700C9A2C009A4249D102008F
S31500002F500B0001F00FFA069A079B06000F0001F01E
S31500002F60F5F948BB069A079B3000390001F0D4F901
S31500002F7010B1099BDD071FD40599039800F0A8FB43
S31500002F8000232370049B249A01331360269B002B95
S31500002F9000D1D1E41C60CFE4D0650000A865000034
S31500002FA00000F03F0000244000001C400000C0FC70
S31500002FB0000014400000E03F049B0D9323001C001A
S31500002FC0013B1A78392A08D1089A9A42F7D10D9A04
S31500002FD0089901320D9230220A701A7801321A705D
S31500002FE086E70022C04B02F0A3F900220023060068
S31500002FF00F0001F091F900288BD0BDE7109F0F9DBF
S31500003000099CAFB1229A012A00DDDDE0189A002A58
S3150000301000D1D3E040F233429B18099A0121D2181D
S3150000302009920E9A0398D3180E9300F003FC07003A
S3150000303074B10E9B002B0BDD0E9A2300944200DD2B
S315000030401300099AE41AD21A09920E9AD31A0E9309
S315000030500F9BF3B1109B002B00D1CDE085B1390059
S315000030602A00039800F0A4FC059A010007000398C3
S3150000307000F0F6FB06000599039800F029FB05967B
S315000030800F9B5A1BAB4204D00599039800F090FCA5
S3150000309005900121039800F0CDFB149B0600002B40
S315000030A000D1AEE11A000100039800F081FC229BDA
S315000030B006000025012B13DC0A9B00256BB90B9B30
S315000030C01B0353B9894B0B9A134206D0099B013552
S315000030D0013309930E9B01330E93149B012043B1D8
S315000030E0336903339B00F318586800F055FB20231F
S315000030F0181A0E9B181802001F231A40184200D1F6
S3150000310080E001339B1A042B78DD1C239B1A099A55
S31500003110E418D21809920E9AD3180E93099B002B25
S3150000312005DD1A000599039800F09AFC05900E9BA0
S31500003130002B05DD31001A00039800F091FC060013
S31500003140159B002B60D03100059800F0F3FC002899
S315000031505ADA049B0A22013B0D9305990023039832
S3150000316000F0D8FA109B0590002B00D150E1002307
S3150000317039000A22039800F0CDFA069B0700002BBF
S315000031804CDC229B022B45DD069B002B00D0E6E59E
S3150000319031000522039800F0BDFA060001000598EB
S315000031A000F0C8FC002800DCD9E5089B089A5C1CE6
S315000031B0312313700D9B01330D93D4E536231A9AF0
S315000031C00F9D9B1A099C28E70C9B5D1E0F9BAB422B
S315000031D008DB5D1B0C9B002BF4DA099B0C9A9C1AEE
S315000031E000231AE70F9B149AEB1AD31814930F9522
S315000031F0099C00250C9B10E70F9A45E7042B8DD000
S315000032001C3384E71300FBE7049B0D930C9B06938A
S31500003210002BB6DD109B002B00D1FDE0002C05DD58
S3150000322039002200039800F01BFC0700049705B341
S315000032307968039800F00CFA040060B9020040F2C5
S31500003240EF212B4BFFF73DFB119E3700ADE7049BAB
S315000032500C9E0D93F9E739003A690C31023292005F
S315000032600C30FFF783FA01222100039800F0F8FBE7
S315000032700490089B069A0993013B9B1801220F9321
S315000032800A9B13400E9331000598FFF77FFA390029
S3150000329005000C90059800F04DFC049A0A90310048
S315000032A0039800F063FC0122C368040030350692DF
S315000032B023B90100059800F03DFC06902100039813
S315000032C000F006FA099B229A5C1C069B13430E9A91
S315000032D013437BB9392D29D00A9B002B01DD0C9DA8
S315000032E03135099B1D7040E5000024400000F07F49
S315000032F0C76300000A9B002B04DB229A13430E9A35
S315000033001343FBB9069B002BEBDD059901220398BD
S3150000331000F0A6FB3100059000F00CFC002803DC51
S315000033200028DED1EB07DCD5392DD8D13923099A0F
S31500003330137023001C00013B1A78392A50D0013241
S315000033401A7012E5069B002B03DD392DEED00135F0
S31500003350C7E7099B099A1D700F9B93422BD0002348
S315000033600A220599039800F0D5F9049B05909F421F
S3150000337009D1390000230A22039800F0CBF907008F
S31500003380049009947FE7390000230A22039800F08D
S31500003390C1F9002307000A220499039800F0BAF93C
S315000033A00490EEE7069B0124002B00DD1C00049729
S315000033B00027089B1C1905990122039800F050FB71
S315000033C03100059000F0B6FB0028B2DC08B9ED0725
S315000033D0AFD423001C00013B1A78302AFAD0C4E48B
S315000033E0089A9A42A6D10D9B01330D93312313708F
S315000033F0BBE4269B002B01D0FFF799FA114BFFF790
S31500003400B7FA229B012B00DC56E60120149D70E6DC
S31500003410069B002B00DCB4E6002431000598FFF77C
S31500003420B5F9089B30301855069B01340500A342B8
S31500003430B8DD00230A220599039800F06BF9059080
S31500003440EBE7C0464A63000070B505000C0079B191
S31500003450043C2368002B00DAE418280000F0E8F8A2
S315000034601C4A13682BB963601460280000F0E8F862
S3150000347070BDA34208D9206821188B42F3D1196880
S315000034805B6809182160EEE71A005B680BB1A3427E
S31500003490FAD911685018A0420BD1206809185018A3
S315000034A011608342E1D118685B684118116053606E
S315000034B0DBE7A04202D90C232B60D6E7206821184F
S315000034C08B4203D119685B680918216063605460F8
S315000034D0CBE7C046A844002010B5034B010018688E
S315000034E000F026F810BDC0461840002070B50F4EFB
S315000034F00D003168040011B900F09CFE306029000F
S31500003500200000F097FE431C03D101256D422800E0
S3150000351070BD0323C51C9D43A842F8D0291A20007C
S3150000352000F088FE0130F2D1EFE7C046A444002047
S31500003530F7B50322CB1C9343083305001F000C2B61
S3150000354034D20C27B94233D8384E280000F070F830
S3150000355033681C00002C2FD139002800FFF7C6FF66
S315000035600400431C5FD134680094009B002B4AD1B1
S31500003570002C52D023682800E3180099019300F02C
S3150000358059FE019B834248D123682800FF1A39005F
S31500003590FFF7ACFF013040D02368DB1923603368A6
S315000035A05A68002A33D1009B336019E0002BC9DA30
S315000035B00C232B600020FEBD2168C91B20D40B29DB
S315000035C00AD9E2192760A34204D132606368116008
S315000035D0536005E05A60F9E76268A3420ED1326093
S315000035E0280000F02DF8200007220B30231D904301
S315000035F0C21A9842DFD01B1AA350DCE75A60EFE7E5
S3150000360023006468A6E7009C63680093ADE71A0090
S315000036105B68A342FBD10023DAE70C2328002B606A
S3150000362000F00EF8C6E70760DAE7C046A8440020B7
S3150000363010B50248FFF78DF810BDC046A044002023
S3150000364010B50248FFF786F810BDC046A04400201A
S3150000365070B5C56906000C0075B91020FFF73CFF70
S315000036600200F06120B96B21174B1848FDF724FEC4
S31500003670456085600560C560F569EB688BB1F369E7
S31500003680A200DB689B181868B8B901210D00A54097
S315000036906A1D3000920000F0DDFD60B14460856077
S315000036A00DE021220421300000F0D4FDF369E8602A
S315000036B0DB68002BE3D1002070BD02681A6000238E
S315000036C00361C360F8E7C04657630000D863000093
S315000036D070B5C66905000C0076B91020FFF7FCFE30
S315000036E00200E86120B98F21084B0948FDF7E4FD87
S315000036F0466086600660C6603CB1EB696268DB685E
S3150000370092009B181A6822601C6070BD5763000007
S31500003710D8630000F7B50F0001900C001E000020D2
S315000037200D6914373B68013099B251431B0C534362
S3150000373089190E0C9B191E0C89B21B045B1808C74D
S315000037408542EFDC16B3A368AB4219DC61680198C9
S315000037500131FFF77DFF070028B90200BA210C4BA3
S315000037600C48FDF7A9FD210022690C3102329200B6
S315000037700C30FEF7FBFF21000198FFF7A9FF3C0084
S315000037802B1D9B00E31801355E6025612000FEBD00
S31500003790C7630000D86300004FF6FF7203000020E5
S315000037A0934201D81B04103080225204934201D266
S315000037B008301B0280225205934201D204301B01BD
S315000037C08022D205934201D202309B00002B03DBFC
S315000037D00130134200D12020704703680100072200
S315000037E01800104013420DD0063A0020134205D1AE
S315000037F00230034203D0D34010000B6070479B0891
S315000038000B60FBE79AB20AB910201B0CDAB20AB9B0
S3150000381008301B0A1A0701D104301B099A0701D187
S3150000382002309B08DA07EBD45B080130002BE7D1A6
S315000038302020E3E710B50C000121FFF709FF30B99E
S31500003840020040F24511044B0448FDF735FD012303
S315000038504461036110BDC046C7630000D863000021
S31500003860F0B514000A6923690D0089B09A4202DB9B
S3150000387023000C001D0027692E696168BB1900939F
S31500003880A368BA19934200DA0131FFF7E1FE8446D4
S3150000389030B9020040F26211434B4448FDF70CFD7B
S315000038A00200BB1914329B00D318019300211300A8
S315000038B00198834228D32300BF00143304931435A0
S315000038C0DB19B6000293AB19079304230593230073
S315000038D002991533994205D30C1B153CA4080134F3
S315000038E0A3000593079B9D4210D3009B002B05DD8B
S315000038F0019B043B01931B68002B51D06346604635
S31500003900009A1A6109B0F0BD02C3D1E72C68A4B2CF
S31500003910FCB100231700049E039308CE3968069372
S315000039206B461B8B88B263431B180398090C1B1844
S315000039300698000C60434018190C4118080C9BB2FD
S3150000394009041943029B039002C7B342E5D8059BBD
S31500003950D0502C68240C04B3002110001368049E78
S3150000396003913168076889B261433F0CC919039F07
S315000039709BB2C9190F041F43076080CE43683F0CF2
S3150000398067439BB2090CFB185B18190C039102994B
S315000039900430B142E5D80599535004350432A1E705
S315000039A0009B013B0093A0E7C7630000D8630000BB
S315000039B0F7B50323150007000E001A401D4208D074
S315000039C02449013A9200525800233100FFF7A2FE23
S315000039D00600AD10DDB3FC697CB91020FFF77CFD55
S315000039E00200F86128B940F2B3111B4B1B48FDF7E2
S315000039F063FC446084600460C460FB699C68019356
S31500003A004CB940F271213800FFF714FF019B040006
S31500003A1098600023036001231D420AD03100220072
S31500003A203800FFF71DFF310001903800FFF750FE08
S31500003A30019E6D105DB1206838B922002100380062
S31500003A40FFF70EFF0023206003600400E3E7300069
S31500003A50FEBDC0469865000057630000D8630000AD
S31500003A60F0B50C0016002369571185B0FB180193B9
S31500003A70013300934968A3680290009A93420FDBD2
S31500003A800298FFF7E5FD0023010005001A00143136
S31500003A9060B9020040F2DE11244B2548FDF70CFC0C
S31500003AA001315B00E9E798000A500133BB42FADBBB
S31500003AB0FB43DB171F40BF0023001F20C919370037
S31500003AC02269143392009A180740064228D0013022
S31500003AD0C01B03908C4600201E68BE40064360460D
S31500003AE040C08446039E01CBF0409A42F4D826009B
S31500003AF015360423B24204D3131B153B9B0801332E
S31500003B009B00C85010B1019B02330093009B0298A2
S31500003B10013B21002B61FFF7DBFD280005B0F0BD5E
S31500003B2001CB01C19A42FBD8F0E7C046C76300004B
S31500003B30D863000030B50B6904690200E01A9C42A4
S31500003B400FD114329B0014311400C918D218043A4C
S31500003B50043915680B689D4204D001209D4200D2AD
S31500003B60023830BD9442F2D3FBE7FFFFF0B50C00FC
S31500003B7087B00090110020001700FFF7DBFF05005B
S31500003B8088B901000098FFF763FD020028B940F2EA
S31500003B9037213F4B3F48FDF78FFB0123456103610A
S31500003BA0100007B0F0BD0026B04203DA23003C0047
S31500003BB01F00013661680098FFF74AFD020018B938
S31500003BC040F24521324BE5E72369143400939B000C
S31500003BD0E318210001943C0002933B6914349B00D6
S31500003BE0E31803930300C6608C4600201433049345
S31500003BF00593634620CBA9B20E009C4608CC2D0C3B
S31500003C0099B2711A09181B0C0814EB1A1B18181410
S31500003C1089B21B041943059B02C30593039BA34268
S31500003C20E7D83900039C153104238C4204D3E31BE7
S31500003C30153B9B0801339B000199CD1804992E0072
S31500003C40CB181F0002998E4210D3029CE91E002059
S31500003C508C4204D321000331491B890888001B18B4
S31500003C60043B196881B1009B136199E7844602CE33
S31500003C7088B2604400140C0C04196144201489B203
S31500003C802404214302C7DDE7009901390091E7E7E3
S31500003C90C7630000D8630000F7B5012116001F00B6
S31500003CA0FFF7D6FC040030B9020040F20F31234B77
S31500003CB02348FDF701FB7D003B036D0D1B0B15B182
S31500003CC080225203134301931EB368460096FFF702
S31500003CD084FD019B0099D0B120221E00121A964045
S31500003CE03200C3400A4362610193019EA661731EBE
S31500003CF09E4101362661A5B13526124BED18089B6B
S31500003D002D181D60099B361A1E602000FEBD6161DC
S31500003D10EBE701A8FFF761FD019B012663612030F7
S31500003D20E8E7094BC018089B1860084BF3189B007E
S31500003D30E3185869FFF730FD7601E3E7C763000033
S31500003D40D8630000CDFBFFFFCEFBFFFFFFFFFF3F69
S31500003D50936810B5013B9360002B04DA9469A34283
S31500003D6007DB0A2905D01368581C10601970080073
S31500003D7010BDFEF7FFFB0100F9E7F8B506000F00DE
S31500003D801400D518AC4201D1002007E021783A0092
S31500003D903000FFF7DDFF0134431CF3D1F8BDFFFF10
S31500003DA0F0B5A1B00D0017001E00039018B1036A0C
S31500003DB00BB9FEF7F3FA6B6EDB0705D4AB899B05EF
S31500003DC002D4A86DFEF7C5FCAB891B0701D52B698C
S31500003DD093B929000398FEF70BFC68B16B6EDB07FD
S31500003DE003D50120404221B0F0BDAB899B05F8D434
S31500003DF0A86DFEF7AFFCF4E7002308AC636120333F
S31500003E0063761033A37607963E0033780BB1252BE5
S31500003E1046D1F31B0593BE420BD03A002900039806
S31500003E20FFF7ABFF013000D1AEE06369059A9B183E
S31500003E3063613378002B00D1A6E0012200235242B1
S31500003E40626004A954325218771C2360E360A360B1
S31500003E501370A365052239785748FEF77CFC7E1C53
S31500003E6000BB2268D30604D5532304A95B1820217E
S31500003E701970130704D5532304A95B182B21197055
S31500003E803B782A2B17D03E00002140F20A0C01276E
S31500003E90E3683278701C303A092A4DD989B917E09F
S31500003EA00136B2E7444B2268C01A0123834013430C
S31500003EB037002360CEE7079B191D1B680791002B6F
S31500003EC001DB0B9304E05B42E360022313432360B0
S31500003ED033782E2B0CD173782A2B33D1079B0236DD
S31500003EE01A1D1B680792002B01DA01235B42099316
S31500003EF0324F032238003178FEF72DFC30B14023D3
S31500003F00C01B8340226801361343236031780622A2
S31500003F102B48771C2176FEF71EFC002843D0294B40
S31500003F2033BB0722079B0733934308330793636921
S31500003F30049A9B18636167E761464B4306003900A4
S31500003F409B18A6E7002340F20A0C1A000127013647
S31500003F5063603178701C3039092903D9002BC7D02A
S31500003F600992C5E763465A4306003B005218F0E73C
S31500003F7007AB00932A002100134B0398FDF7D2FDEF
S31500003F800490049B0133D2D16B6EDB0705D4AB8959
S31500003F909B0502D4A86DFEF7DDFBAB895B0600D559
S31500003FA01FE70D981FE707AB00932A002100064B79
S31500003FB00398FEF75DF8E3E732640000386400001A
S31500003FC03C640000251B00007B3D0000F7B50C2279
S31500003FD08B5E05000C001A0753D44A68002A02DCDF
S31500003FE00A6C002A4BDDE76A002F48D0002241F216
S31500003FF000002E682A601A00216A0240034230D06F
S31500004000626DA3895B0705D56368D21A636B0BB132
S31500004010236CD21A00232800E76A216AB847A289CE
S31500004020431C06D129681D2944D8284BCB40DB0701
S3150000403040D50023636023692360D20404D5431C62
S3150000404001D12B6803B96065616B2E60B9B123009D
S315000040504433994202D02800FFF7F6F90023636340
S315000040600DE001232800B8470200431CC9D12B6884
S31500004070002BC6D01D2B01D0162B1AD12E60002086
S315000040801EE00E69002EFAD00F680E60BA1B019270
S3150000409000229B0700D14A69A260019B002BEEDD3E
S315000040A0A36A32001F002800019B216AB847002836
S315000040B007DCA2894023012013431BB2A38140429F
S315000040C0FEBD019B36181B1A0193E6E7010040204E
S315000040D00B6970B505000C0013B90025280070BDEA
S315000040E018B1036A0BB9FEF759F90C22A35E002B2F
S315000040F0F3D0626ED20704D49B0502D4A06DFEF7FE
S3150000410028FB28002100FFF761FF636E0500DB072F
S31500004110E4D4A3899B05E1D4A06DFEF71BFBDDE784
S3150000412070B50E001D000E23C95E140096B000295E
S315000041300CDAB2898023110019401A4214D140F2D8
S31500004140004300202960236016B070BD6A4600F067
S315000041504FF80028EDDB4FF2000301991940044B9C
S31500004160C9184B425941EAE700214023E9E7C04616
S3150000417000E0FFFFF0B502268B8905000C0085B034
S31500004180334207D023004733236023610123636151
S3150000419005B0F0BD03AB02AAFFF7C2FF029F019074
S315000041A039002800FFF7C4F940B90C22A35E9A052E
S315000041B0EED4032293431E43A681E3E78023A2891C
S315000041C020601343A381039B206167615BB12800D4
S315000041D00E23E15E00F01EF828B10323A2899A435C
S315000041E0023B1343A381A389019A1343A381CFE71B
S315000041F0002370B5064D0400080011002B6001F085
S31500004200F1FF431C02D12B6803B1236070BDC04689
S315000042109C440020002370B5054D040008002B6067
S3150000422001F0EAFF431C02D12B6803B1236070BD85
S315000042309C440020002370B5054D040008002B6047
S31500004240FDF73CF8431C02D12B6803B1236070BD17
S315000042509C4400200B0C70B5150CEBB965B989B2FE
S3150000426094B24C432100FFF763F90500D0B1220058
S315000042700021FEF715FA15E02B1C0C1C89B292B230
S315000042804A439BB2A1B25943140C0C19230C33B9FF
S31500004290240492B21443E5E70DB9141CEEE70C238F
S315000042A000250360280070BD82B001B901A9100085
S315000042B02AB133B113780B601078431E984102B0CF
S315000042C0704702204042FAE70300080029B1FF2A9E
S315000042D004D98A2201201A604042704701200A70E0
S315000042E0FBE7FFFF03B47146490840004900095E39
S315000042F049008E4403BC70478446100062468C46D3
S315000043001900634600E0C0461FB500F0A3FF002871
S3150000431001D40021C8421FBD10B500F0E9FE40429D
S31500004320013010BD10B500F095FF002801DB00201C
S3150000433010BD012010BDC04610B500F08BFF00284F
S3150000434001DD002010BD012010BDC04610B500F0F3
S3150000435013FF002801DC002010BD012010BDC0465F
S3150000436010B500F009FF002801DA002010BD012079
S3150000437010BDC046F0B5CE46474680B50D0383B0A6
S31500004380009201934E00C300CC0F690A450F0D43FE
S315000043909946009A019B19035F00D80F530F009AA4
S315000043A0490A760D7F0D0B43AC46D200F11B8442C1
S315000043B000D1BBE0002900DC82E0002F00D1F9E04B
S315000043C040F2FF70864200D19CE10125382914DCB9
S315000043D08020000403431F2900DD06E220201D0083
S315000043E0401A170082408540CF40501E82413D430F
S315000043F0CB4015436246D31A9C464B465D1BA945E6
S315000044008041634640421B1A984643461B0200D42D
S3150000441045E143465B025B0A98464346002B00D1C2
S315000044201EE14046FDF7C4FA0100083920222F009C
S31500004430531A4046DF4088403B008D4003438E427E
S3150000444000DDCDE1881B29000130121AC1409540DC
S315000044508846691E8D41190091400A004146C340B5
S3150000446029430D009846002615436B0709D00F23F4
S315000044702B40042B05D02B1DAB42AD416D42A84409
S315000044801D0043461B0200D4C4E240F2FF7301360E
S315000044909E4200D1DFE04146D04A334011400A0037
S315000044A05707ED0852022F43120B1B051343E4076F
S315000044B023433800190003B0C0BCB946B046F0BD6E
S315000044C0002900D18AE0B91B002E00D076E12C002D
S315000044D04D462C43002C00D1D2E14C1E012900D1BF
S315000044E055E240F2FF75A94200D108E20125382CB9
S315000044F013DC21001F2900DD08E2202465464E4614
S31500004500641AA540CE4035434E46A6403400661E8A
S31500004510B44125436446CC401B1B551BAA4292411D
S3150000452052429B1A984604003E006EE7002900DCC2
S31500004530BAE0002F00D083E018001043002800D115
S31500004540F3E0481E012900D1ACE140F2FF75A94213
S3150000455000D1D7E00125382810DC01001F2900DD35
S31500004560BAE120201D00401A170082408540CF4046
S31500004570501E8241CB403D4315439C444D444D451E
S31500004580804140426044804643461B0200D486E098
S3150000459040F2FF7301369E425DD042468F4B0121A9
S315000045A01A40130029406A080A43DD075B0898464B
S315000045B015435AE718001043002800D1B5E0481EFD
S315000045C0012900D17DE140F2FF75A94200D199E0B1
S315000045D00125382800DD10E70100FCE640F2FE75F3
S315000045E0771C3D4200D0D5E04F4665463D431F004F
S315000045F01743002E00D047E1002D00D1BAE1002F6D
S3150000460000D178E14D46AD1AA8466546C145B6418A
S31500004610ED1A7642AD1B80263604354200D109E2FA
S315000046204C46151BAA429241644652421B1B9A1ADB
S31500004630324200D117E2694B04001A4001232FE7EA
S3150000464040F2FF7086425DD00125382996DC802035
S315000046500004034382E740F2FF730022002724E7A9
S315000046602800FDF7A5F9010018311F2900DCDDE659
S315000046702B00083883408E4200DDC5E0891B481CAC
S315000046801F2800DCCAE11D001F39CD40202805D0B7
S315000046904022121A93405A1E93411D4300266B076F
S315000046A000D0E4E6310009E100294ED0B91B002E06
S315000046B000D1B4E040F2FF70874200D123E101252A
S315000046C0382917DC8020654600040543AC461F29BF
S315000046D000DD8CE1202065464E46401A8540CE40DE
S315000046E035434E4686403000461EB041054360467F
S315000046F0C8401B18AD1895429241524290463E0062
S31500004700984441E74B46DA0863465F071743DD08DE
S315000047102B003B43002B00D1A0E1802212032A4349
S31500004720120340F2FF73120BBFE64B46DA086346EC
S315000047305F07DD0840F2FF7317439942E8D040F265
S31500004740FF732A03120B0B40AFE640F2FE70771C94
S31500004750384278D128004D462843002E00D0E8E0A4
S31500004760002800D13FE118001043002800D1C2E024
S315000047704A444A458041634440421B18D208190204
S3150000478000D465E115490B405F075B0217431A0B1E
S3150000479001238AE649468D1AA945BF4161467F42F3
S315000047A0C91AC91B884609025FD447462F43002F02
S315000047B000D032E600240023002276E640F2FF74A1
S315000047C0A74200D19BE00125382900DDA5E680241B
S315000047D0654624042543AC468CE6C046FFFF7FFFB2
S315000047E0A44A761A134098463FE608001F00203870
S315000047F0C740202903D04020411A8B401A43531E3C
S315000048009A4115003D43F8E59A4A711A13409C46B1
S3150000481063465F0743461F436346DD088FE728006C
S315000048204D462843002800D1BCE0481E012900D18E
S31500004830F8E040F2FF75A94265D00125382800DD71
S3150000484058E7010043E740F2FF718F4200D102E7CB
S315000048504A444A458041634440421B18DD075208DA
S315000048605B0898463E001543FFE54946551AAA429D
S315000048709241614652425B1A9B1A98460400CCE567
S3150000488004009C46D20852E7002D00D08DE0002F90
S3150000489000D1D9E0DD08D7085B071F432B000400D1
S315000048A03B4337E74A444A458041634498461500EE
S315000048B040428044434601211B0266D4C446EA08AE
S315000048C035E749468D1AA945804162464042D31ACA
S315000048D01B1A9846012698E508001F002038C74095
S315000048E0202903D04020411A8B401A43531E9A4177
S315000048F015003D4342E64B46DB08984688E7040030
S315000049009C46D20800E79C46D208FDE60C006646A7
S31500004910203CE640202907D04024611A64468C409A
S3150000492021004C460C43A1464D46691E8D41354338
S31500004930F3E50028E7D019001143002900D1E1E68C
S315000049406146CD084946C8086146490708438021A3
S3150000495009030D4206D0DE080E4203D13500D00809
S315000049605B0718432B00470FC0007F07C0080743AB
S315000049703B43CFE6002F00D11CE7D2085F075B025E
S31500004980174304001A0B00238FE5022605E6551B84
S315000049906146AA4292415B1A52429B1A984604000B
S315000049A0012632E59C46D208C1E6002F00D1A9E6D1
S315000049B061466646CD0849467607C90831438026D2
S315000049C03603354207D0DF08374204D104003D00E4
S315000049D0D1085B0719432B004F0FC9007F07C90891
S315000049E00F433B4396E6D20890469C4610E70800E4
S315000049F066462038C640202907D04020411A604626
S31500004A00884001004846084381464D46691E8D414F
S31500004A1035436FE63100C446EA0888E620220025C1
S31500004A20121A18E5AD1895429241634498465242CF
S31500004A3090443FE747462F43002F00D1BAE643464E
S31500004A40DB089846AC46E3E6802500242D0364E6A1
S31500004A505F075B0217431A0B002326E5002740F287
S31500004A60FF73002221E5ED0857072F430400D50800
S31500004A7065E6C046FFFF7FFFF0B5DE464546574672
S31500004A804E46E0B587B0009201930B031B0B9B4685
S31500004A904B00CA0F5B0D040080460292002B00D12A
S31500004AA092E040F2FF72934239D05946420FC90054
S31500004AB00A43802109041143C2009046894A894667
S31500004AC092469A44002300240393009E019F3B03D1
S31500004AD01B0B9B467B005B0D3000FD0F002B00D1AE
S31500004AE0A6E040F2FF72934200D194E05946720F5D
S31500004AF0C9000A438021090411437A4A00209446DA
S31500004B0052466344D31A9A468B46F100029B6B4089
S31500004B100F2C00D9F0E0744AA400125997465B4660
S31500004B2003439946002B00D0A4E0023340F200086C
S31500004B30082440F2FF7A0393C7E72B0040F2FF7286
S31500004B40002440F2000812052243DB071A434046C0
S31500004B50110007B0F0BCBB46B246A946A046F0BD60
S31500004B600022002440F20008EDE7CB464146029DB4
S31500004B7003980228E1D0032800D173E22B00012814
S31500004B80EED040F2FF305044002800DCA7E14A078F
S31500004B9000D07AE25A46D20106D55846534A10400A
S31500004BA0834640F20040504440F2FE729042C5DC1B
S31500004BB05A46C90852070A4390465A46540240F2DA
S31500004BC0FF72240B0240BEE75B4603439946002B67
S31500004BD062D05B46002B00D1DBE15846FCF7E8FECD
S31500004BE00B235B429C460200844466461D239B1BA6
S31500004BF0260011005846DE4008398840330003433A
S31500004C00994623008B409846394B00249B1A9A46B6
S31500004C100023039359E75946009B1943354B9C469D
S31500004C20E244A1BB022340F2000B02201C436DE7C5
S31500004C305946009B194321B35B46002B00D1BAE1CC
S31500004C405846FCF7B5FE020003000B3A1D27009EEE
S31500004C50BA1A19005846D64008398840320002432D
S31500004C609346009A8A401100534440F2F33A0020DA
S31500004C709A444BE70323D9460C2440F2FF7A039368
S31500004C8023E7012340F2000B01201C433EE70323E8
S31500004C90310003201C4339E7012340F200080424B5
S31500004CA040F2000A039310E78024002340F2000834
S31500004CB0240340F2FF7246E780244B462403234236
S31500004CC008D05B46234205D11C4324032B008846AB
S31500004CD0240BEEE780244B4624031C432403029B4B
S31500004CE0240BE6E701FCFFFF9C670000FFFFFFFEC9
S31500004CF00DFCFFFF01F8FFFFCB4500D23FE100D1DD
S31500004D003AE101225242944647464A460025E24489
S31500004D1058460C0E000204430902000CB2FBF0FCDC
S31500004D2000914FF6FF7126002140029464460391DC
S31500004D304C4361464143521A1204390CA0461143B2
S31500004D408C4207D9B14662464944013A8E4200D8A0
S31500004D5050E194464246891AB1FBF0FB5A46039C41
S31500004D604FF6FF7962435C464443091B4C460904EF
S31500004D703C4021438A4208D9029E5C46B0464144E3
S31500004D80671E8E4200D82BE1BB468A1A61465C46F6
S31500004D904FF6FF7C09040C430099270C090C894641
S31500004DA06146A34621406446009E344004944C4329
S31500004DB02600049C7C43A0464C4661436743340C62
S31500004DC0A44641446144884503D980246402A4462C
S31500004DD067440C0CA0460904474488464FF6FF7109
S31500004DE031404144BA4200D2ADE000D1A8E0691A90
S31500004DF08D42AD41029ED71B6D427F1BBE4200D144
S31500004E0034E1B7FBF0F20400039D544355433F1BC6
S31500004E103F040C0C2743BD420BD9B046541E4744F1
S31500004E20A446BE4200D937E1BD4200D834E1023A79
S31500004E3047447F1BB7FBF0F56843381A4FF6FF77F8
S31500004E40039C00046C430F40A4460743BC420BD9A5
S31500004E500298691E80464744B84200D91EE1BC4507
S31500004E6000D81BE1023D474461467F1A1104049CA9
S31500004E7029430D0C20006C434FF6FF72A4464C46A6
S31500004E800A405043624362449046020C42446543E2
S31500004E90944503D980246402A4466544140CA446B0
S31500004EA0AC444FF6FF75120428401218674506D326
S31500004EB002D00122114364E6002A00D161E6029C79
S31500004EC0481EA0464744A74200D2C2E0674500D22A
S31500004ED0F9E000D103E10100EBE70121494201229B
S31500004EE0121A382A00DD3BE61F2A00DC8CE01F245C
S31500004EF06442201A5C46C4402000202A05D040F2B5
S31500004F003E425C465244944021434A1E9141072248
S31500004F1001431000002408400A420CD00F220A4028
S31500004F20042A00D1E0E0081D884292410100524265
S31500004F3050075202140BC90801438846002202E6B4
S31500004F408D4200D353E7012464425C440594009CDF
S31500004F50A4466544A542A4416442A446029CA046D8
S31500004F60C4446244944235D2974200D99BE000D1B2
S31500004F7096E0059CA3463AE7414500D9C1E6484676
S31500004F80C707404640084A46074340465208C507F9
S31500004F90BEE6FCF70DFD40F2150C844402006346A4
S31500004FA020321C2B00DC20E623000838834040F228
S31500004FB00008994628E6FCF7FBFC020003001532C0
S31500004FC020331C2A00DC41E6009A08388240002182
S31500004FD0934649E69442CCD1009CAC42C9D8C3E77B
S31500004FE08A4200D8D0E602246442A046C344B046B2
S31500004FF04144CAE6884500D8ABE6022252429146B1
S31500005000CC44B1464944A5E640F21E400D0050444A
S315000050105C4681408440D54008002C43411E8841AF
S31500005020210001435846D0400200480709D00F200E
S315000050300840042805D0081D884289414942521873
S315000050400100100200D473E70122002440F2000898
S3150000505079E50100674500D02BE70098824200D031
S3150000506027E78EE580245B4624032DE640F2FF30D9
S315000050701E4A5044924500DA2FE701225242111D82
S31500005080914292415242934484E50F220A40042AF7
S3150000509000D17FE50A00F2E76246CAE60D00E3E6C4
S315000050A0A94200D865E702246442A446009CE34472
S315000050B0A4466544A542A4416442A446029CA04677
S315000050C0C444624493E60098029C450085428041B0
S315000050D0A0464042404402393F180095BAE7009C7A
S315000050E09442F0D30100B8E7002221E702FCFFFF5B
S315000050F0F0B55746DE464E464546E0B50D0004007F
S31500005100E80F8346D80F824640F2FF700903090B69
S315000051108C461F0369005E00490D3F0B760D8142E8
S3150000512017D086420ED00120B1420CD1BC450AD11F
S31500005130944208D1D3451CD029B960462043431E6A
S31500005140984100E00120F0BCBB46B246A946A04605
S31500005150F0BD01208E42F6D1614639430F00174358
S315000051602743002FEFD15B465246981A431E9841BB
S31500005170E9E70020E7E7C046F0B557464E46454604
S31500005180DE46E0B50D000E034900490D8A4640F2A1
S31500005190FF7BE90F83B00400804601915800190394
S315000051A0DF0F9146BC46360B090B400DDA451DD084
S315000051B058450CD057465FBB344330BB0A43002AE0
S315000051C037D0002C42D163465800013816E011430F
S315000051D0002938D1534613B92643002EF3D0019B3C
S315000051E0634507D1019B5800013807E0264356BBAB
S315000051F0504521D00120019B5F42384303B0F0BCEB
S31500005200BB46B246A946A046F0BD002CDBD0E6E779
S315000052100028EFD0019B6345ECD18245EADCE1DB57
S315000052208E42E7D8DED1C845E4D80020C845E5D28D
S31500005230D8E7002CE2D0DDE7114321B9019BBB4240
S31500005240D8D10020DAE702204042D7E7019B634528
S31500005250E6D0CFE7F0B557464E464546DE46E0B5C2
S315000052600D000E034900490D8A4640F2FF7BE90F07
S3150000527083B004008046019158001903DF0F914660
S31500005280BC46360B090B400DDA451ED058450DD0ED
S31500005290574647BB3443002834D10A43002A34D04A
S315000052A0002C40D163465800013815E0114391B9EE
S315000052B0534613B92643002EF4D0019B63451DD0F7
S315000052C00120019B5F42384306E026431EB9504544
S315000052D0F6D11143E1B1022003B0F0BCBB46B246A1
S315000052E0A946A046F0BD0028EAD0019B6345E7D158
S315000052F08245E5DC02DB8E42E2D80ED0019B5800E7
S315000053000138E9E7002CCDD0D7E7002CE4D0D7E769
S31500005310019B0020BB42DFD0D2E7C845D0D8002091
S31500005320C845D9D2EAE7019B6345E4D0C8E7C04641
S31500005330F0B5DE464E4657464546E0B589B0009282
S3150000534001930B031B0B9B464B00CA0F5B0D04001E
S315000053509146002B00D1CDE140F2FF72934200D17D
S315000053605FE15946420FC9000A43802109041143EF
S31500005370C2009046DC4A8B469C1800230025029307
S31500005380009E019F3B031B0B9A467B00FA0F5B0DA9
S3150000539030000392002B00D183E140F2FF7293426A
S315000053A000D169E15146720FC9000A438021090400
S315000053B01143CD4A8A46944600216344F0001B19E6
S315000053C05C1C0A2D00DD3CE14E46039A5640F2B2C3
S315000053D00092022D00DCB7E1012240F23057AA40CC
S315000053E015003A002A402F4200D028E140F240271B
S315000053F02F4200D01BE288222A4200D0FDE14FF660
S31500005400FF75414642462940170C0540020C08002C
S3150000541068438446280016007843804608007E4389
S31500005420029203963200029E70436646360CB146DF
S3150000543040444844804505D91600802252029046D1
S31500005440464403964FF6FF78060C42460496664697
S3150000545000041640B4460200624405925246120CFD
S315000054609446404652460E00104046436246B146B8
S31500005470060051437E4357434A46B246120C9046B5
S31500005480514441448E4203D98022520290464744F9
S315000054900A0C90464E463A004FF6FF773E40B1461C
S315000054A0424406920904049A494490468946C844EF
S315000054B0424604925A46120C90465A4617403E00FF
S315000054C06E43B14646466E43B2464E464546360C98
S315000054D0B346029A079155437A4352445A44924539
S315000054E003D9802149028A465544160CB2465544D2
S315000054F04FF6FF7A494656460E40B14612044146DB
