S015000052413045315F5441555F50574D2E737265633A
S3150000000048450020F50100000D010000F101000047
S31500000010F1010000F1010000F1010000F101000012
S31500000020000000000000000000000000F1010000D8
S31500000030F101000000000000F1010000F1010000E4
S3150000004000000000000000000000000000000000AA
S31500000050000000000000000000000000000000009A
S31500000060000000000000000000000000000000008A
S31500000070000000000000000000000000000000007A
S31500000080000000000000000000000000C1070000A2
S31500000090000000000000000000000000000000005A
S315000000A0000000000000000000000000000000004A
S315000000B0000000000000000000000000000000003A
S315000000C0000000000000000000000000000000002A
S315000000D0000000000000000000000000000000001A
S315000000E0000000000000000010B5034B8200D3584A
S315000000F003B1984710BDC04658400020024B80000F
S31500000100195000207047C04658400020F8B540F20C
S31500000110401300240127084E084A758CD35A1D4007
S315000001202B00E3403B4202D0E0B2FFF7DDFF013493
S31500000130102CF5D17586F8BDFE60004000600040C9
S315000001401F22430910401E3A8240024960339B0039
S315000001505A50704700E100E0F7B5FF270192830887
S315000001600A4A03269B009B183A0040F200350640D7
S31500000170F6008901B2403940B1405C598000944391
S315000001800C435C51019A024B1A50F7BD00E100E0A6
S315000001909C4000201F22430910401E3A824002491B
S315000001A09B005A507047C04600E100E010B50400BD
S315000001B0FFF7C6FF2000FFF7EDFF10BD1F22430922
S315000001C010401E3A8240044920339B005A50BFF328
S315000001D04F8FBFF36F8F704700E100E010B504004A
S315000001E0FFF7BAFF2000FFF7E1FF10BD7047C046DA
S315000001F000BE704710B500F003F800F0B1F9FEE755
S3150000020070B50025184B194A00209A6000F094F941
S3150000021000F0E0FB012000F08FF91548154A002197
S31500000220121A00F045FC1448144A1549121A00F037
S3150000023047FC144C144BE41AA410A5420CDB00F046
S315000002403FFB00F031FC022000F076F9FFF7CEFF0D
S31500000250002000F02AFC70BD0B4AAB009B181B68FF
S3150000026098470135E9E7C04600ED00E000000000D0
S315000002702040002048410020004000200840002087
S31500000280EC0B00000440002000400020FFFFFFFFB1
S31500000290FFFFFFFFFFFFFFFFFFFFFFFFFFFFFFFF68
S315000002A0FFFFFFFFFFFFFFFFFFFFFFFFFFFFFFFF58
S315000002B0FFFFFFFFFFFFFFFFFFFFFFFFFFFFFFFF48
S315000002C0FFFFFFFFFFFFFFFFFFFFFFFFFFFFFFFF38
S315000002D0FFFFFFFFFFFFFFFFFFFFFFFFFFFFFFFF28
S315000002E0FFFFFFFFFFFFFFFFFFFFFFFFFFFFFFFF18
S315000002F0FFFFFFFFFFFFFFFFFFFFFFFFFFFFFFFF08
S31500000300FFFFFFFFFFFFFFFFFFFFFFFFFFFFFFFFF7
S31500000310FFFFFFFFFFFFFFFFFFFFFFFFFFFFFFFFE7
S31500000320FFFFFFFFFFFFFFFFFFFFFFFFFFFFFFFFD7
S31500000330FFFFFFFFFFFFFFFFFFFFFFFFFFFFFFFFC7
S31500000340FFFFFFFFFFFFFFFFFFFFFFFFFFFFFFFFB7
S31500000350FFFFFFFFFFFFFFFFFFFFFFFFFFFFFFFFA7
S31500000360FFFFFFFFFFFFFFFFFFFFFFFFFFFFFFFF97
S31500000370FFFFFFFFFFFFFFFFFFFFFFFFFFFFFFFF87
S31500000380FFFFFFFFFFFFFFFFFFFFFFFFFFFFFFFF77
S31500000390FFFFFFFFFFFFFFFFFFFFFFFFFFFFFFFF67
S315000003A0FFFFFFFFFFFFFFFFFFFFFFFFFFFFFFFF57
S315000003B0FFFFFFFFFFFFFFFFFFFFFFFFFFFFFFFF47
S315000003C0FFFFFFFFFFFFFFFFFFFFFFFFFFFFFFFF37
S315000003D0FFFFFFFFFFFFFFFFFFFFFFFFFFFFFFFF27
S315000003E0FFFFFFFFFFFFFFFFFFFFFFFFFFFFFFFF17
S315000003F0FFFFFFFFFFFFFFFFFFFFFFFFFFFFFFFF07
S31500000400FFFFFFFFF7AFC1FF44F2080044F2080305
S31500000410C2F20000C2F2000310B5834205D040F2DA
S315000004200003C0F2000303B1984710BD44F2080070
S3150000043044F20803C2F20000C2F200031B1A9A102B
S31500000440D90F8918491010B529B140F20003C0F23E
S31500000450000303B1984710BD10B544F22004C2F260
S315000004600004237873B9FFF7CFFF40F20003C0F210
S3150000047000032BB140F6E830C0F2000000E000BFF8
S315000004800123237010BDC04640F20003C0F20003F2
S3150000049010B54BB144F2240140F6E830C2F2000137
S315000004A0C0F2000000E000BFFFF7C0FF10BDC0466D
S315000004B01FB51B491B4800F09BF828B11A211A4B9F
S315000004C01A4A1B4800F0F2FA164800F04FF801A944
S315000004D0144800F075F81749124800F057F818B19B
S315000004E02821114B114AECE701A90E4800F068F8E3
S315000004F0032240F2D0710B4800F058F818B13121B0
S31500000500094B0A4ADDE7052241F27071054800F001
S315000005104DF818B13521044B044AD2E705B000BDA9
S315000005206C0B0000444000203C0B0000620B0000F6
S315000005304F0B00008038010010B518B90122054B99
S315000005401A7010BD0228FCD10349044800F08AF94C
S31500000550F7E7C04690C07E40BC0B00003C40002040
S3150000056010B5FFF7A5FF002010BDFFFF436800226E
S315000005701978054B062904D19A8F817A0A439A87FE
S31500000580027A00209A867047FE260A40426813784F
S31500000590127C063B584243415B18023B02499BB220
S315000005A0520000205352704700260A40034BD2B235
S315000005B089B252000020D1527047C04600260A4038
S315000005C04368094A1B7C5B009B5A9AB202338B60D4
S315000005D043681B78062B01D101328A600020034B49
S315000005E01B6808704B60704700260A404441002093
S315000005F0F0B50D0041604B690400C3608B6985B09E
S315000006000361CA695C4B11781B8F2A7A9BB2002959
S3150000061000D0ADE00F318B43134301221000564E3C
S3150000062033872B7CE96998406072EFF3108082F380
S315000006301088524FFB689343FB60FB6880F3108879
S3150000064040F601020B784E489B031A432B7C92B26C
S3150000065088335B001A522B786A68063B59424B4135
S315000006609B182A7C023B9BB2520083522B7C4BB1D7
S3150000067040F23E12617A835A8B438352F38F627A39
S315000006809343F38712203C49627A4B8F93434B87FF
S315000006908B8F627A93438B872856002803DB2200D0
S315000006A0697CFFF79BFDEB6902931E1D20330393C4
S315000006B03368002B4FD0012219788A40D3B20193B8
S315000006C0EFF31080012282F31088FB689343FB60EE
S315000006D0FB6880F310882B78029A063B5842434108
S315000006E0107840F200428003083303439BB2134361
S315000006F0234A48009446204A844480184382604630
S315000007003368019A5B88038040F23E101C4B1B5AEB
S3150000071013431B4A1352184A0198D38F83433068F8
S315000007204079884003439BB2D387538F0198834314
S31500000730306800798840034307209BB25387A37A29
S31500000740019A1A43A272336818569979002802DB77
S315000007502200FFF743FD039B0436B342A8D10020D5
S31500000760637AA27A13432372064B236005B0F0BD69
S31500000770F02112018B434FE7FE260A40FC6F04402E
S3150000078000260A4050554154F0B5040085B0EFF3F9
S315000007900383103B094A5BB29B009F58FD6855B125
S315000007A00822002102A800F083F93B6901AE30005F
S315000007B034710193A84705B0F0BDC0469C400020A7
S315000007C010B50420FFF7E0FF10BDFFFFEFF3108028
S315000007D0012383F31088064B196819B9054A11706D
S315000007E0403111701A6801321A6080F31088704720
S315000007F09840002040030A40EFF31081012383F361
S315000008001088074B1A6812B11A68013A1A601A68FA
S315000008101AB9044B1A7080321A7081F31088704727
S315000008209840002040030A4070B50400FFF7CEFF51
S315000008300022FF200A4D2388934202D8FFF7DCFFEF
S3150000084070BD6168D300C9188E880968330A1B0118
S3150000085006409B1989B25B000132595392B2EAE70E
S3150000086000020A4010B5034B03600800FFF7DCFFE7
S31500000870002010BD54524F5040F20A2230B50F4BA3
S31500000880995C8909814218D040F20B2401211D5D33
S3150000089029431955022805D0995C8909022901D0F6
S315000008A08021995440F20A2240F20B218001C0B205
S315000008B0985401205A5C82435A5430BD00C07E4091
S315000008C040F61A0210B5154B15499C5C154AD068BE
S315000008D0E040086040F62300185C800708D540F623
S315000008E022001B5C13B193680B6010BD1369FBE714
S315000008F040F62100185C8007F7D440F62000185C0B
S31500000900800705D540F61900185C5368C340EBE72D
S3150000091040F61800185C1368F8E7C04600E001408E
S315000009204441002008400020F8B540F62305012781
S31500000930264C665DBE436655665DB607F70F002E0C
S31500000940FADB0126B04224D840F62105675DB7439D
S315000009506755665DB607FCD4012640F6200588B9C2
S31500000960605DB0436055605D8007FCD440F61800BA
S31500000970215440F61901625440F61A02A354FFF7B7
S315000009809FFFF8BD615D0E436655615D8907FCD525
S31500000990EFE7032808D140F62101605C304360543C
S315000009A0605C8007FCD5E4E740F6220102280AD104
S315000009B066540121605D014340F623006155215CC8
S315000009C08907FCD5D5E76754F3E7C04600E0014048
S315000009D07047FFFF40F6FE0370B5294A294C2A49A5
S315000009E0E2522A4B2A4AD9601A602A4A5A6048F2C9
S315000009F000029A601A61FFF763FF40F600035A226D
S31500000A0040F62401E254635C93B1234B2348DA6831
S31500000A100240DA60DA687F252148C27A2A40C2722B
S31500000A208022D86812040243DA60DB68002363542C
S31500000A3040F611030722E254053BE25CDAB10022DC
S31500000A40E2540320FFF718FF002240F60B03E2549E
S31500000A5040F61002A35CFF2BFCD1002303201A00F2
S31500000A601900FFF761FF0220FFF706FF40F6FE03BD
S31500000A700C4AE25270BD40F2E830FFF7A9FFE0E70A
S31500000A8003A5FFFF00E0014000127A0008400020A5
S31500000A900048E80100093D00FC6F0440FFFF7FFFAE
S31500000AA0002C0A4000A5FFFF7047704700BEFEE716
S31500000AB003008218934200D1704719700133F9E799
S31500000AC0002310B59A4200D110BDCC5CC45401334A
S31500000AD0F8E7FFFF4275696C7420776974682052E5
S31500000AE0656E6573617320416476616E636564202B
S31500000AF0466C657869626C6520536F6674776172BF
S31500000B0065205061636B6167652076657273696FF6
S31500000B106E20352E332E3000352E332E3000000059
S31500000B2000000305F8B5C046F8BC08BC9E467047F1
S31500000B30F8B5C046F8BC08BC9E4670474653505FA1
S31500000B4053554343455353203D3D20657272002E55
S31500000B502E2F7372632F68616C5F656E7472792EC7
S31500000B60630068616C5F656E747279000600000050
S31500000B703505000000000000000000000002130020
S31500000B8000000000000000008C0B000000000000C8
S31500000B90AC0B0000B40B00000000000000000000D9
S31500000BA00000000000000000000000000300B70184
S31500000BB00000FFDF050062030000FFDF0400000005
S31500000BC0C80B000000000000040100000301000043
S31500000BD00001000008010000040100000C010000F3
S31100000BE0000100000003000000000000FF
S30D00000BEC890400005904000011
S31501010018FFFFFFFFFFFFFFFFFFFFFFFFFFFFFFFFE0
S31101010028FFFFFFFFFFFFFFFFFFFFFFFFD0
S705000001F504
