S019000052413345315F5441555F4F4E455F50574D2E73726563F2
S31500000000384500205D02000075010000590200001D
S31500000010590200005902000059020000590200006E
S31500000020000000000000000000000000590200006F
S3150000003059020000000000005902000059020000A9
S3150000004000000000000000000000000000000000AA
S31500000050000000000000000000000000000000009A
S31500000060000000000000000000000000000000008A
S31500000070000000000000000000000000000000007A
S315000000800000000000000000000000000D08000055
S31500000090000000000000000000000000000000005A
S315000000A0000000000000000000000000000000004A
S315000000B0000000000000000000000000000000003A
S315000000C0000000000000000000000000000000002A
S315000000D0000000000000000000000000000000001A
S315000000E0000000000000000040F61A0210B5154B93
S315000000F015499C5C154AD068E040086040F623002C
S31500000100185C800708D540F622001B5C13B1936883
S315000001100B6010BD1369FBE740F62100185C8007F1
S31500000120F7D440F62000185C800705D540F6190084
S31500000130185C5368C340EBE740F61800185C136878
S31500000140F8E7C04600E001403041002008400020AA
S3150000015010B5034B8200D35803B1984710BDC04673
S3150000016060400020024B8000195000207047C046B6
S3150000017060400020F8B540F2401300240127084EE5
S31500000180084A758CD35A1D402B00E3403B4202D0EF
S31500000190E0B2FFF7DDFF0134092CF5D17586F8BD15
S315000001A0FE600040006000401F22430910401E3AD6
S315000001B08240024960339B005A50704700E100E0DC
S315000001C0F7B5FF27019283080A4A03269B009B186E
S315000001D03A0040F200350640F6008901B240394047
S315000001E0B1405C59800094430C435C51019A024B28
S315000001F01A50F7BD00E100E0884000201F224309A5
S3150000020010401E3A824002499B005A507047C04631
S3150000021000E100E010B50400FFF7C6FF2000FFF77D
S31500000220EDFF10BD1F22430910401E3A82400449CB
S3150000023020339B005A50BFF34F8FBFF36F8F704729
S3150000024000E100E010B50400FFF7BAFF2000FFF759
S31500000250E1FF10BD7047C04600BE704710B500F004
S3150000026019FC00F0B7F9FEE7FFFFFFFFFFFFFFFFF6
S31500000270FFFFFFFFFFFFFFFFFFFFFFFFFFFFFFFF88
S31500000280FFFFFFFFFFFFFFFFFFFFFFFFFFFFFFFF78
S31500000290FFFFFFFFFFFFFFFFFFFFFFFFFFFFFFFF68
S315000002A0FFFFFFFFFFFFFFFFFFFFFFFFFFFFFFFF58
S315000002B0FFFFFFFFFFFFFFFFFFFFFFFFFFFFFFFF48
S315000002C0FFFFFFFFFFFFFFFFFFFFFFFFFFFFFFFF38
S315000002D0FFFFFFFFFFFFFFFFFFFFFFFFFFFFFFFF28
S315000002E0FFFFFFFFFFFFFFFFFFFFFFFFFFFFFFFF18
S315000002F0FFFFFFFFFFFFFFFFFFFFFFFFFFFFFFFF08
S31500000300FFFFFFFFFFFFFFFFFFFFFFFFFFFFFFFFF7
S31500000310FFFFFFFFFFFFFFFFFFFFFFFFFFFFFFFFE7
S31500000320FFFFFFFFFFFFFFFFFFFFFFFFFFFFFFFFD7
S31500000330FFFFFFFFFFFFFFFFFFFFFFFFFFFFFFFFC7
S31500000340FFFFFFFFFFFFFFFFFFFFFFFFFFFFFFFFB7
S31500000350FFFFFFFFFFFFFFFFFFFFFFFFFFFFFFFFA7
S31500000360FFFFFFFFFFFFFFFFFFFFFFFFFFFFFFFF97
S31500000370FFFFFFFFFFFFFFFFFFFFFFFFFFFFFFFF87
S31500000380FFFFFFFFFFFFFFFFFFFFFFFFFFFFFFFF77
S31500000390FFFFFFFFFFFFFFFFFFFFFFFFFFFFFFFF67
S315000003A0FFFFFFFFFFFFFFFFFFFFFFFFFFFFFFFF57
S315000003B0FFFFFFFFFFFFFFFFFFFFFFFFFFFFFFFF47
S315000003C0FFFFFFFFFFFFFFFFFFFFFFFFFFFFFFFF37
S315000003D0FFFFFFFFFFFFFFFFFFFFFFFFFFFFFFFF27
S315000003E0FFFFFFFFFFFFFFFFFFFFFFFFFFFFFFFF17
S315000003F0FFFFFFFFFFFFFFFFFFFFFFFFFFFFFFFF07
S31500000400FFFFFFFFF7AFC1FF44F2080044F2080305
S31500000410C2F20000C2F2000310B5834205D040F2DA
S315000004200003C0F2000303B1984710BD44F2080070
S3150000043044F20803C2F20000C2F200031B1A9A102B
S31500000440D90F8918491010B529B140F20003C0F23E
S31500000450000303B1984710BD10B544F22004C2F260
S315000004600004237873B9FFF7CFFF40F20003C0F210
S3150000047000032BB140F63040C0F2000000E000BFA0
S315000004800123237010BDC04640F20003C0F20003F2
S3150000049010B54BB144F2240140F63040C2F20001DF
S315000004A0C0F2000000E000BFFFF7C0FF10BDC0466D
S315000004B010B50379042B0BD1064C074B22681B6839
S315000004C09A4202DA054800F097F823680133236060
S315000004D010BDC046404000203C4000204C4000205B
S315000004E037B52B492B4800F0C3F828B131212A4BE8
S315000004F02A4A2B4800F0CCFA41F64071254800F014
S315000005008FF818B13721244B244AF2E7032240F230
S31500000510D071204800F090F818B13B211E4B1F4ABD
S31500000520E7E70A231F4C204D23602860194800F096
S315000005306BF8184800F060F82A6823689A42FBDBDB
S3150000054040F6A071134800F06BF818B15021124B19
S31500000550124ACEE7032240F6B8310E4800F06CF896
S3150000056018B154210C4B0D4AC3E7062323602860BB
S31500000570084800F041F82A6823689A42FBDB0548E0
S3150000058000F02EF86946034800F05EF837BDC04615
S31500000590DC0B00004C400020AC0B0000D20B00002E
S315000005A0BF0B00003C4000204040002010B518B9A9
S315000005B00122054B1A7010BD0228FCD103490448DC
S315000005C000F076F9F7E7C04690C07E400C0C0000BC
S315000005D04440002010B5FFF783FF002010BDFFFF49
S315000005E0027A044BDA86817A9A8F00208A439A87A8
S315000005F07047C046FE260A40427A024B00209A8681
S315000006007047C046FE260A40044B817A9A8F0A43F9
S315000006109A87027A00209A867047C046FE260A40CC
S315000006204368044A1B7C023989B25B000020995258
S315000006307047C04600260A40024B89B2520000208D
S31500000640D152704700260A4010B5084C2300FE33ED
S315000006505A8E436801201B7C1A4180338340024036
S315000006600A711B5B00200B6010BDC04600260A40C5
S3150000067040F2010CF7B541604B690400C3608B6919
S31500000680504E0361002360463387CA690D00097C1A
S3150000069088406072EFF310878CF3108863464A49EE
S315000006A0C8689843C860C96887F31088297800230A
S315000006B005291BD12B7C45492BB9607A4B7983439D
S315000006C0507803434B714B78DBB201935078677ACD
S315000006D0844618006346384313B1019BBB43180098
S315000006E040F208134870917889010B431278384F0D
S315000006F09203134340F600029BB21A432B7C8833C5
S315000007005B00DA536B682A7C023B9BB25200D353E0
S315000007102B7C4BB140F23E12617ABB5A8B43BB52E3
S31500000720F38F627A9343F3871220738F627A93432F
S315000007307387B38F627A9343B3872856002803DB07
S315000007402200697CFFF77EFDE9694A689AB30D7855
S3150000075040F20841AD03294389B201911C49107842
S315000007608C4618494500AC446D18019901236982ED
S31500000770654651888340298040F23E15795BDBB29D
S31500000780194379535579F18F85409943294389B2A5
S31500000790F1871579718F854007209943294389B2DE
S315000007A07187A17A0B43A37210569179002802DB58
S315000007B02200FFF747FD637AA27A002013432372D3
S315000007C0FEBDC046FE260A40FC6F044000100A40EB
S315000007D000260A40F0B5040085B0EFF30383103B12
S315000007E0094A5BB29B009F58FD6855B1082200215B
S315000007F002A800F095F93B6901AE3000347101930F
S31500000800A84705B0F0BDC0468840002010B50420BA
S31500000810FFF7E0FF10BDFFFFEFF31080012383F326
S315000008201088064B196819B9054A117040311170C4
S315000008301A6801321A6080F31088704784400020DD
S3150000084040030A40EFF31081012383F31088074B1E
S315000008501A6812B11A68013A1A601A681AB9044B72
S315000008601A7080321A7081F3108870478440002015
S3150000087040030A4070B50400FFF7CEFF0022FF20B8
S315000008800A4D2388934202D8FFF7DCFF70BD6168EA
S31500000890D300C9188E880968330A1B0106409B19C4
S315000008A089B25B000132595392B2EAE700020A406C
S315000008B010B5034B03600800FFF7DCFF002010BDF6
S315000008C054524F5040F20A2230B50F4B995C8909B9
S315000008D0814218D040F20B2401211D5D2943195590
S315000008E0022805D0995C8909022901D080219954F2
S315000008F040F20A2240F20B218001C0B29854012036
S315000009005A5C82435A5430BD00C07E40F8B540F66A
S3150000091023050127264C665DBE436655665DB60710
S31500000920F70F002EFADB0126B04224D840F6210547
S31500000930675DB7436755665DB607FCD4012640F68A
S31500000940200588B9605DB0436055605D8007FCD4C2
S3150000095040F61800215440F61901625440F61A0276
S31500000960A354FFF7C1FBF8BD615D0E436655615D9B
S315000009708907FCD5EFE7032808D140F62101605C22
S3150000098030436054605C8007FCD5E4E740F6220102
S3150000099002280AD166540121605D014340F6230016
S315000009A06155215C8907FCD5D5E76754F3E7C04656
S315000009B000E001407047FFFF40F6FE0370B5294A8C
S315000009C0294C2A49E2522A4B2A4AD9601A602A4AF5
S315000009D05A6048F200029A601A61FFF785FB40F6FA
S315000009E000035A2240F62401E254635C93B1234B80
S315000009F02348DA680240DA60DA687F252148C27A3D
S31500000A002A40C2728022D86812040243DA60DB6888
S31500000A100023635440F611030722E254053BE25CCF
S31500000A20DAB10022E2540320FFF74CFF002240F621
S31500000A300B03E25440F61002A35CFF2BFCD100230B
S31500000A4003201A001900FFF761FF0220FFF73AFFA3
S31500000A5040F6FE030C4AE25270BD40F2E830FFF762
S31500000A60A9FFE0E703A5FFFF00E0014000127A00BE
S31500000A70084000200048E80100093D00FC6F0440E2
S31500000A80FFFF7FFF002C0A4000A5FFFF704770475D
S31500000A9000BEFEE770B50025184B194A00209A6083
S31500000AA0FFF784FDFFF788FF0120FFF77FFD15485C
S31500000AB0154A0021121A00F033F81448144A154951
S31500000AC0121A00F035F8144C144BE41AA410A5427F
S31500000AD00CDBFFF709FBFFF7D9FF0220FFF766FDE6
S31500000AE0FFF7B8FB0020FFF7D2FF70BD0B4AAB0043
S31500000AF09B181B6898470135E9E7C04600ED00E002
S31500000B00000000002040002034410020004000206A
S31500000B1008400020340C0000044000200040002063
S31500000B2003008218934200D1704719700133F9E728
S31500000B30002310B59A4200D110BDCC5CC4540133D9
S31500000B40F8E7FFFF4275696C742077697468205274
S31500000B50656E6573617320416476616E63656420BA
S31500000B60466C657869626C6520536F66747761724E
S31500000B7065205061636B6167652076657273696F86
S31500000B806E20352E352E3000352E352E30000000E5
S31500000B9000000505F8B5C046F8BC08BC9E4670477F
S31500000BA0F8B5C046F8BC08BC9E4670474653505F31
S31500000BB053554343455353203D3D20657272002EE5
S31500000BC02E2F7372632F68616C5F656E7472792E57
S31500000BD0630068616C5F656E7472790005000000E1
S31500000BE0401F00000000000000000000000213008B
S31500000BF0B104000000000000FC0B00000000000033
S31500000C00040C00000300FFFF0000FFDF03000000EC
S31500000C10180C0000000000000001000008010000A0
S31500000C20040100000C0100000001000000030000A8
S30900000C3000000000BA
S30D00000C348904000059040000C8
S31501010018FFFFFFFFFFFFFFFFFFFFFFFFFFFFFFFFE0
S31101010028FFFFFFFFFFFFFFFFFFFFFFFFD0
S7050000025D9B
