S014000052413045315F425554544F4E2E737265639C
S31500000000384500204D010000650000004901000050
S3150000001049010000490100004901000049010000B2
S315000000200000000000000000000000004901000080
S3150000003049010000000000004901000049010000DC
S3150000004010B5034B8200D35803B1984710BDC04684
S3150000005044400020024B8000195000207047C046E3
S3150000006044400020F8B540F2401300240127084E12
S31500000070084A758CD35A1D402B00E3403B4202D000
S31500000080E0B2FFF7DDFF0134102CF5D17586F8BD1F
S31500000090FE600040006000401F22430910401E3AE7
S315000000A08240024960339B005A50704700E100E0ED
S315000000B0F7B5FF27019283080A4A03269B009B187F
S315000000C03A0040F200350640F6008901B240394058
S315000000D0B1405C59800094430C435C51019A024B39
S315000000E01A50F7BD00E100E0884000201F224309B6
S315000000F010401E3A824002499B005A507047C04643
S3150000010000E100E010B50400FFF7C6FF2000FFF78E
S31500000110EDFF10BD1F22430910401E3A82400449DC
S3150000012020339B005A50BFF34F8FBFF36F8F70473A
S3150000013000E100E010B50400FFF7BAFF2000FFF76A
S31500000140E1FF10BD7047C04600BE704710B500F015
S3150000015003F800F0E5F9FEE770B50025184B194ADB
S3150000016000209A6000F0C8F900F00EFB012000F0B4
S31500000170C3F91548154A0021121A00F071FB1448FC
S31500000180144A1549121A00F073FB144C144BE41A66
S31500000190A410A5420CDB00F06DFA00F05FFB022014
S315000001A000F0AAF9FFF7CEFF002000F058FB70BD63
S315000001B00B4AAB009B181B6898470135E9E7C04618
S315000001C000ED00E000000000204000203441002047
S315000001D000400020084000202409000004400020C0
S315000001E000400020FFFFFFFFFFFFFFFFFFFFFFFFB5
S315000001F0FFFFFFFFFFFFFFFFFFFFFFFFFFFFFFFF09
S31500000200FFFFFFFFFFFFFFFFFFFFFFFFFFFFFFFFF8
S31500000210FFFFFFFFFFFFFFFFFFFFFFFFFFFFFFFFE8
S31500000220FFFFFFFFFFFFFFFFFFFFFFFFFFFFFFFFD8
S31500000400FFFFFFFFF7AFC1FF44F2080044F2080305
S31500000410C2F20000C2F2000310B5834205D040F2DA
S315000004200003C0F2000303B1984710BD44F2080070
S3150000043044F20803C2F20000C2F200031B1A9A102B
S31500000440D90F8918491010B529B140F20003C0F23E
S31500000450000303B1984710BD10B544F22004C2F260
S315000004600004237873B9FFF7CFFF40F20003C0F210
S3150000047000032BB140F62010C0F2000000E000BFE0
S315000004800123237010BDC04640F20003C0F20003F2
S3150000049010B54BB144F2240140F62010C2F200011F
S315000004A0C0F2000000E000BFFFF7C0FF10BDC0466D
S315000004B013B56B4600210F489A1D00F073F86B4682
S315000004C05C1D22000F210B4800F05EF8227852B125
S315000004D000220D21074800F06FF801220E21054881
S315000004E000F06AF8EBE70E21024800F065F80122F9
S315000004F00D21F4E73C40002010B518B90122054B48
S315000005001A7010BD0228FCD10349044800F084F893
S31500000510F7E7C04690C07E40EC0800003C40002053
S3150000052010B5FFF7C5FF002010BDFFFFEFF31080E9
S31500000530012383F31088064B196819B9054A11700F
S31500000540403111701A6801321A6080F310887047C2
S315000005508440002040030A40EFF31081012383F317
S315000005601088074B1A6812B11A68013A1A601A689D
S315000005701AB9044B1A7080321A7081F310887047CA
S315000005808440002040030A400B0A1B01C9B25B18D5
S3150000059003495B005B5A00209B07DB0F1370704713
S315000005A000020A40034B090A4901C918CB880020FA
S315000005B01380704700000A400123C8B28340002020
S315000005C09BB20AB918001300034A090A490189189F
S315000005D0088100204B81704700000A4070B5040076
S315000005E0FFF7A4FF0022FF200A4D2388934202D87A
S315000005F0FFF7B2FF70BD6168D300C9188E8809681D
S31500000600330A1B0106409B1989B25B00013259531C
S3150000061092B2EAE700020A4010B5034B03600800F5
S31500000620FFF7DCFF002010BD54524F5040F20A2263
S3150000063030B50F4B995C8909814218D040F20B24E2
S3150000064001211D5D29431955022805D0995C8909A8
S31500000650022901D08021995440F20A2240F20B214E
S315000006608001C0B2985401205A5C82435A5430BD6E
S3150000067000C07E4040F61A0210B5154B15499C5C29
S31500000680154AD068E040086040F62300185C8007F1
S3150000069008D540F622001B5C13B193680B6010BDB1
S315000006A01369FBE740F62100185C8007F7D440F693
S315000006B02000185C800705D540F61900185C5368C1
S315000006C0C340EBE740F61800185C1368F8E7C0462D
S315000006D000E001403041002008400020F8B540F617
S315000006E023050127264C665DBE436655665DB60743
S315000006F0F70F002EFADB0126B04224D840F621057A
S31500000700675DB7436755665DB607FCD4012640F6BC
S31500000710200588B9605DB0436055605D8007FCD4F4
S3150000072040F61800215440F61901625440F61A02A8
S31500000730A354FFF79FFFF8BD615D0E436655615DEB
S315000007408907FCD5EFE7032808D140F62101605C54
S3150000075030436054605C8007FCD5E4E740F6220134
S3150000076002280AD166540121605D014340F6230048
S315000007706155215C8907FCD5D5E76754F3E7C04688
S3150000078000E001407047FFFF40F6FE0370B5294ABE
S31500000790294C2A49E2522A4B2A4AD9601A602A4A27
S315000007A05A6048F200029A601A61FFF763FF40F64A
S315000007B000035A2240F62401E254635C93B1234BB2
S315000007C02348DA680240DA60DA687F252148C27A6F
S315000007D02A40C2728022D86812040243DA60DB68BB
S315000007E00023635440F611030722E254053BE25C02
S315000007F0DAB10022E2540320FFF718FF002240F688
S315000008000B03E25440F61002A35CFF2BFCD100233D
S3150000081003201A001900FFF761FF0220FFF706FF09
S3150000082040F6FE030C4AE25270BD40F2E830FFF794
S31500000830A9FFE0E703A5FFFF00E0014000127A00F0
S31500000840084000200048E80100093D00FC6F044014
S31500000850FFFF7FFF002C0A4000A5FFFF704770478F
S3150000086003008218934200D1704719700133F9E7EB
S31500000870002310B59A4200D110BDCC5CC45401339C
S31500000880F8E7FFFF4275696C742077697468205237
S31500000890656E6573617320416476616E636564207D
S315000008A0466C657869626C6520536F667477617211
S315000008B065205061636B6167652076657273696F49
S315000008C06E20352E332E3000352E332E30000000AC
S315000008D000000305F8B5C046F8BC08BC9E46704744
S315000008E0F8B5C046F8BC08BC9E4670470500000037
S315000008F0F808000000000000040000000D000000E1
S31500000900040000000E000000000000000F000000C0
S3150000091000010000080100000001000000030000C3
S3090000092000000000CD
S30D000009248904000059040000DB
S31501010018FFFFFFFFFFFFFFFFFFFFFFFFFFFFFFFFE0
S31101010028FFFFFFFFFFFFFFFFFFFFFFFFD0
S7050000014DAC
